{
  "contractName": "Crowdsale",
  "abi": [
    {
      "inputs": [
        {
          "internalType": "address",
          "name": "token",
          "type": "address"
        }
      ],
      "stateMutability": "nonpayable",
      "type": "constructor"
    },
    {
      "anonymous": false,
      "inputs": [
        {
          "indexed": false,
          "internalType": "address",
          "name": "backer",
          "type": "address"
        },
        {
          "indexed": false,
          "internalType": "uint256",
          "name": "amount",
          "type": "uint256"
        },
        {
          "indexed": false,
          "internalType": "bool",
          "name": "isContribution",
          "type": "bool"
        },
        {
          "indexed": false,
          "internalType": "uint256",
          "name": "amountRaised",
          "type": "uint256"
        }
      ],
      "name": "FundTransfer",
      "type": "event"
    },
    {
      "anonymous": false,
      "inputs": [
        {
          "indexed": false,
          "internalType": "address",
          "name": "beneficiary",
          "type": "address"
        },
        {
          "indexed": false,
          "internalType": "uint256",
          "name": "amountRaised",
          "type": "uint256"
        }
      ],
      "name": "GoalReached",
      "type": "event"
    },
    {
      "inputs": [],
      "name": "amountRaised",
      "outputs": [
        {
          "internalType": "uint256",
          "name": "",
          "type": "uint256"
        }
      ],
      "stateMutability": "view",
      "type": "function"
    },
    {
      "inputs": [
        {
          "internalType": "address",
          "name": "",
          "type": "address"
        }
      ],
      "name": "balanceOf",
      "outputs": [
        {
          "internalType": "uint256",
          "name": "",
          "type": "uint256"
        }
      ],
      "stateMutability": "view",
      "type": "function"
    },
    {
      "inputs": [],
      "name": "deadline",
      "outputs": [
        {
          "internalType": "uint256",
          "name": "",
          "type": "uint256"
        }
      ],
      "stateMutability": "view",
      "type": "function"
    },
    {
      "inputs": [],
      "name": "fundingGoal",
      "outputs": [
        {
          "internalType": "uint256",
          "name": "",
          "type": "uint256"
        }
      ],
      "stateMutability": "view",
      "type": "function"
    },
    {
      "inputs": [],
      "name": "maxGoal",
      "outputs": [
        {
          "internalType": "uint256",
          "name": "",
          "type": "uint256"
        }
      ],
      "stateMutability": "view",
      "type": "function"
    },
    {
      "inputs": [],
      "name": "owner",
      "outputs": [
        {
          "internalType": "address",
          "name": "",
          "type": "address"
        }
      ],
      "stateMutability": "view",
      "type": "function"
    },
    {
      "inputs": [],
      "name": "start",
      "outputs": [
        {
          "internalType": "uint256",
          "name": "",
          "type": "uint256"
        }
      ],
      "stateMutability": "view",
      "type": "function"
    },
    {
      "inputs": [],
      "name": "tokenReward",
      "outputs": [
        {
          "internalType": "contract IDEOR",
          "name": "",
          "type": "address"
        }
      ],
      "stateMutability": "view",
      "type": "function"
    },
    {
      "inputs": [
        {
          "internalType": "address",
          "name": "newOwner",
          "type": "address"
        }
      ],
      "name": "transferOwnership",
      "outputs": [],
      "stateMutability": "nonpayable",
      "type": "function"
    },
    {
      "stateMutability": "payable",
      "type": "receive"
    },
    {
      "inputs": [],
      "name": "invest",
      "outputs": [],
      "stateMutability": "payable",
      "type": "function"
    },
    {
      "inputs": [],
      "name": "finalizeICO",
      "outputs": [],
      "stateMutability": "nonpayable",
      "type": "function"
    }
  ],
  "bytecode": "0x6080604052686c6b935b8bbd4000006001556702c68af0bb1400006002556358b590706004556358d14e006005556000600960006101000a81548160ff0219169083151502179055506000600960016101000a81548160ff02191690831515021790555034801561006f57600080fd5b50604051610f72380380610f728339818101604052602081101561009257600080fd5b8101908080519060200190929190505050336000806101000a81548173ffffffffffffffffffffffffffffffffffffffff021916908373ffffffffffffffffffffffffffffffffffffffff16021790555080600660006101000a81548173ffffffffffffffffffffffffffffffffffffffff021916908373ffffffffffffffffffffffffffffffffffffffff16021790555050610e3e806101346000396000f3fe6080604052600436106100a05760003560e01c80637b3e5e7b116100645780637b3e5e7b146102325780638da5cb5b1461025d578063be9a6555146102b4578063e8b5e51f146102df578063f2fde38b146102e9578063f71441a51461033a57610104565b806323cc75a81461010957806329dcb0cf146101205780636e66f6e91461014b57806370a08231146101a25780637a3a0e841461020757610104565b36610104576000809054906101000a900473ffffffffffffffffffffffffffffffffffffffff1673ffffffffffffffffffffffffffffffffffffffff163373ffffffffffffffffffffffffffffffffffffffff161461010257610101610365565b5b005b600080fd5b34801561011557600080fd5b5061011e6105e2565b005b34801561012c57600080fd5b50610135610af8565b6040518082815260200191505060405180910390f35b34801561015757600080fd5b50610160610afe565b604051808273ffffffffffffffffffffffffffffffffffffffff1673ffffffffffffffffffffffffffffffffffffffff16815260200191505060405180910390f35b3480156101ae57600080fd5b506101f1600480360360208110156101c557600080fd5b81019080803573ffffffffffffffffffffffffffffffffffffffff169060200190929190505050610b24565b6040518082815260200191505060405180910390f35b34801561021357600080fd5b5061021c610b3c565b6040518082815260200191505060405180910390f35b34801561023e57600080fd5b50610247610b42565b6040518082815260200191505060405180910390f35b34801561026957600080fd5b50610272610b48565b604051808273ffffffffffffffffffffffffffffffffffffffff1673ffffffffffffffffffffffffffffffffffffffff16815260200191505060405180910390f35b3480156102c057600080fd5b506102c9610b6d565b6040518082815260200191505060405180910390f35b6102e7610365565b005b3480156102f557600080fd5b506103386004803603602081101561030c57600080fd5b81019080803573ffffffffffffffffffffffffffffffffffffffff169060200190929190505050610b73565b005b34801561034657600080fd5b5061034f610c44565b6040518082815260200191505060405180910390f35b600034905060001515600960019054906101000a900460ff16151514801561038f57506004544210155b610401576040517f08c379a00000000000000000000000000000000000000000000000000000000081526004018080602001828103825260138152602001807f43726f776473616c6520697320636c6f7365640000000000000000000000000081525060200191505060405180910390fd5b6000600760003373ffffffffffffffffffffffffffffffffffffffff1673ffffffffffffffffffffffffffffffffffffffff1681526020019081526020016000205414156104ad576008339080600181540180825580915050600190039060005260206000200160009091909190916101000a81548173ffffffffffffffffffffffffffffffffffffffff021916908373ffffffffffffffffffffffffffffffffffffffff1602179055505b6104ff81600760003373ffffffffffffffffffffffffffffffffffffffff1673ffffffffffffffffffffffffffffffffffffffff16815260200190815260200160002054610c4a90919063ffffffff16565b600760003373ffffffffffffffffffffffffffffffffffffffff1673ffffffffffffffffffffffffffffffffffffffff1681526020019081526020016000208190555061055781600354610c4a90919063ffffffff16565b6003819055507f1673f758ed3beff5e37b51f770fd638a812bade2568f15526a4f5b33945c936333826001600354604051808573ffffffffffffffffffffffffffffffffffffffff1673ffffffffffffffffffffffffffffffffffffffff1681526020018481526020018315151515815260200182815260200194505050505060405180910390a150565b6000809054906101000a900473ffffffffffffffffffffffffffffffffffffffff1673ffffffffffffffffffffffffffffffffffffffff163373ffffffffffffffffffffffffffffffffffffffff161461063b57600080fd5b6005544210610af65760001515600960019054906101000a900460ff16151514801561066957506004544210155b6106db576040517f08c379a00000000000000000000000000000000000000000000000000000000081526004018080602001828103825260138152602001807f43726f776473616c6520697320636c6f7365640000000000000000000000000081525060200191505060405180910390fd5b60006106f4600354600254610cd290919063ffffffff16565b9050600080905060008090505b600880549050811015610a26576000610799600760006008858154811061072457fe5b9060005260206000200160009054906101000a900473ffffffffffffffffffffffffffffffffffffffff1673ffffffffffffffffffffffffffffffffffffffff1673ffffffffffffffffffffffffffffffffffffffff1681526020019081526020016000205485610d6190919063ffffffff16565b9050600660009054906101000a900473ffffffffffffffffffffffffffffffffffffffff1673ffffffffffffffffffffffffffffffffffffffff166323b872dd6000809054906101000a900473ffffffffffffffffffffffffffffffffffffffff166008858154811061080857fe5b9060005260206000200160009054906101000a900473ffffffffffffffffffffffffffffffffffffffff16846040518463ffffffff1660e01b8152600401808473ffffffffffffffffffffffffffffffffffffffff1673ffffffffffffffffffffffffffffffffffffffff1681526020018373ffffffffffffffffffffffffffffffffffffffff1673ffffffffffffffffffffffffffffffffffffffff1681526020018281526020019350505050602060405180830381600087803b1580156108d057600080fd5b505af11580156108e4573d6000803e3d6000fd5b505050506040513d60208110156108fa57600080fd5b810190808051906020019092919050505015610a1857610999600760006008858154811061092457fe5b9060005260206000200160009054906101000a900473ffffffffffffffffffffffffffffffffffffffff1673ffffffffffffffffffffffffffffffffffffffff1673ffffffffffffffffffffffffffffffffffffffff1681526020019081526020016000205484610c4a90919063ffffffff16565b9250600060076000600885815481106109ae57fe5b9060005260206000200160009054906101000a900473ffffffffffffffffffffffffffffffffffffffff1673ffffffffffffffffffffffffffffffffffffffff1673ffffffffffffffffffffffffffffffffffffffff168152602001908152602001600020819055505b508080600101915050610701565b506001548110610ad8576001600960006101000a81548160ff0219169083151502179055507fec3f991caf7857d61663fd1bba1739e04abd4781238508cde554bb849d790c856000809054906101000a900473ffffffffffffffffffffffffffffffffffffffff1682604051808373ffffffffffffffffffffffffffffffffffffffff1673ffffffffffffffffffffffffffffffffffffffff1681526020018281526020019250505060405180910390a15b6001600960016101000a81548160ff02191690831515021790555050505b565b60055481565b600660009054906101000a900473ffffffffffffffffffffffffffffffffffffffff1681565b60076020528060005260406000206000915090505481565b60015481565b60035481565b6000809054906101000a900473ffffffffffffffffffffffffffffffffffffffff1681565b60045481565b6000809054906101000a900473ffffffffffffffffffffffffffffffffffffffff1673ffffffffffffffffffffffffffffffffffffffff163373ffffffffffffffffffffffffffffffffffffffff1614610bcc57600080fd5b600073ffffffffffffffffffffffffffffffffffffffff168173ffffffffffffffffffffffffffffffffffffffff1614610c4157806000806101000a81548173ffffffffffffffffffffffffffffffffffffffff021916908373ffffffffffffffffffffffffffffffffffffffff1602179055505b50565b60025481565b600080828401905083811015610cc8576040517f08c379a000000000000000000000000000000000000000000000000000000000815260040180806020018281038252601b8152602001807f536166654d6174683a206164646974696f6e206f766572666c6f77000000000081525060200191505060405180910390fd5b8091505092915050565b6000808211610d49576040517f08c379a000000000000000000000000000000000000000000000000000000000815260040180806020018281038252601a8152602001807f536166654d6174683a206469766973696f6e206279207a65726f00000000000081525060200191505060405180910390fd5b6000828481610d5457fe5b0490508091505092915050565b600080831415610d745760009050610de1565b6000828402905082848281610d8557fe5b0414610ddc576040517f08c379a0000000000000000000000000000000000000000000000000000000008152600401808060200182810382526021815260200180610de86021913960400191505060405180910390fd5b809150505b9291505056fe536166654d6174683a206d756c7469706c69636174696f6e206f766572666c6f77a26469706673582212207de7d4a68afe2427844bc4a834b5a186da23d4c61268ed2f52112fcd56f2f5a464736f6c63430006060033",
  "immutableReferences": {},
  "source": "pragma solidity >=0.6.6;\r\n\r\nimport \"./library/SafeMathDEOR.sol\";\r\nimport \"./library/Ownable.sol\";\r\nimport \"./interfaces/IDEOR.sol\";\r\n\r\ncontract Crowdsale is Ownable {\r\n    using SafeMathDEOR for uint256;\r\n\r\n\t/* if the funding goal is not reached, investors may withdraw their funds */\r\n\tuint256 public fundingGoal = 2000 * (10**18);\r\n\t/* the maximum amount of tokens to be sold */\r\n\tuint256 public maxGoal = 20000000 * (10**10);\r\n\t/* how much has been raised by crowdale (in ETH) */\r\n\tuint256 public amountRaised;\r\n\t/* the start date of the crowdsale */\r\n\tuint256 public start = 1488294000;\r\n\t/* there are different prices in different time intervals */\r\n\tuint256 public deadline = 1490112000;\r\n\t/* the address of the token contract */\r\n\tIDEOR public tokenReward;\r\n\t/* the balances (in ETH) of all investors */\r\n\tmapping(address => uint256) public balanceOf;\r\n\taddress[] private investors;\r\n\t/* indicated if the funding goal has been reached. */\r\n\tbool fundingGoalReached = false;\r\n\t/* indicates if the crowdsale has been closed already */\r\n\tbool crowdsaleClosed = false;\r\n\t/* notifying transfers and the success of the crowdsale*/\r\n\tevent GoalReached(address beneficiary, uint256 amountRaised);\r\n\tevent FundTransfer(address backer, uint256 amount, bool isContribution, uint256 amountRaised);\r\n\r\n    /*  initialization, set the token address */\r\n    constructor(address token) public {\r\n        tokenReward = IDEOR(token);\r\n    }\r\n\r\n    /* invest by sending ether to the contract. */\r\n    receive () external payable {\r\n\t\tif(msg.sender != owner) //do not trigger investment if the multisig wallet is returning the funds\r\n        \tinvest();\r\n    }\r\n\r\n    /* make an investment\r\n    *  only callable if the crowdsale started and hasn't been closed already and the maxGoal wasn't reached yet.\r\n    *  the current token price is looked up and the corresponding number of tokens is transfered to the receiver.\r\n    *  the sent value is directly forwarded to a safe multisig wallet.\r\n    *  this method allows to purchase tokens in behalf of another address.*/\r\n    function invest() public payable {\r\n    \tuint256 amount = msg.value;\r\n\t\trequire(crowdsaleClosed == false && now >= start, \"Crowdsale is closed\");\r\n\r\n\t\tif (balanceOf[msg.sender] == 0) {\r\n\t\t\tinvestors.push(msg.sender);\r\n\t\t}\r\n\r\n\t\tbalanceOf[msg.sender] = balanceOf[msg.sender].add(amount);\r\n\t\tamountRaised = amountRaised.add(amount);\r\n\r\n        emit FundTransfer(msg.sender, amount, true, amountRaised);\r\n    }\r\n\r\n    modifier afterDeadline() { if (now >= deadline) _; }\r\n\r\n    /* allows the funders to withdraw their funds if the goal has not been reached.\r\n\t*  only works after funds have been returned from the multisig wallet. */\r\n\tfunction finalizeICO() public onlyOwner afterDeadline {\r\n\t\trequire(crowdsaleClosed == false && now >= start, \"Crowdsale is closed\");\r\n\t\tuint256 price = maxGoal.div(amountRaised);\r\n\t\tuint256 totalEth = 0;\r\n\t\tfor (uint256 i = 0 ; i < investors.length ; i ++) {\r\n\t\t\tuint256 numTokens = price.mul(balanceOf[investors[i]]);\r\n\t\t\tif (tokenReward.transferFrom(owner, investors[i], numTokens)) {\r\n\t\t\t\ttotalEth = totalEth.add(balanceOf[investors[i]]);\r\n\t\t\t\tbalanceOf[investors[i]] = 0;\r\n\t\t\t}\r\n\t\t}\r\n        if (totalEth >= fundingGoal) {\r\n            fundingGoalReached = true;\r\n            GoalReached(owner, totalEth);\r\n        }\r\n        crowdsaleClosed = true;\r\n    }\r\n}",
  "sourcePath": "F:/my-current-project/20210106_DEOR/DecentralizedOracle/on-chain-oracle/contracts/Crowdsale.sol",
  "compiler": {
    "name": "solc",
    "version": "0.6.6+commit.6c089d02.Emscripten.clang"
  },
  "schemaVersion": "3.3.3",
  "updatedAt": "2021-02-03T09:00:30.502Z",
  "networkType": "ethereum",
  "devdoc": {
    "methods": {
      "transferOwnership(address)": {
        "details": "Allows the current owner to transfer control of the contract to a newOwner.",
        "params": {
          "newOwner": "The address to transfer ownership to."
        }
      }
    }
  },
  "userdoc": {
    "methods": {}
  }
}