{
  "contractName": "Oracle",
  "abi": [
    {
      "anonymous": false,
      "inputs": [
        {
          "indexed": false,
          "name": "id",
          "type": "uint256"
        },
        {
          "indexed": false,
          "name": "urlToQuery",
          "type": "string"
        },
        {
          "indexed": false,
          "name": "attributeToFetch",
          "type": "string"
        }
      ],
      "name": "NewRequest",
      "type": "event"
    },
    {
      "anonymous": false,
      "inputs": [
        {
          "indexed": false,
          "name": "id",
          "type": "uint256"
        },
        {
          "indexed": false,
          "name": "urlToQuery",
          "type": "string"
        },
        {
          "indexed": false,
          "name": "attributeToFetch",
          "type": "string"
        },
        {
          "indexed": false,
          "name": "agreedValue",
          "type": "string"
        }
      ],
      "name": "UpdatedRequest",
      "type": "event"
    },
    {
      "constant": false,
      "inputs": [
        {
          "name": "_urlToQuery",
          "type": "string"
        },
        {
          "name": "_attributeToFetch",
          "type": "string"
        }
      ],
      "name": "createRequest",
      "outputs": [],
      "payable": false,
      "stateMutability": "nonpayable",
      "type": "function"
    },
    {
      "constant": false,
      "inputs": [
        {
          "name": "_id",
          "type": "uint256"
        },
        {
          "name": "_valueRetrieved",
          "type": "string"
        }
      ],
      "name": "updateRequest",
      "outputs": [],
      "payable": false,
      "stateMutability": "nonpayable",
      "type": "function"
    }
  ],
  "bytecode": "0x60806040526000600155600280556003805534801561001d57600080fd5b50610ae78061002d6000396000f30060806040526004361061004c576000357c0100000000000000000000000000000000000000000000000000000000900463ffffffff168063cfb0ac9914610051578063df89f819146100c4575b600080fd5b34801561005d57600080fd5b506100c260048036038101908080359060200190929190803590602001908201803590602001908080601f0160208091040260200160405190810160405280939291908181526020018383808284378201915050505050509192919290505050610173565b005b3480156100d057600080fd5b50610171600480360381019080803590602001908201803590602001908080601f0160208091040260200160405190810160405280939291908181526020018383808284378201915050505050509192919290803590602001908201803590602001908080601f016020809104026020016040519081016040528093929190818152602001838380828437820191505050505050919291929050505061066f565b005b600080600080600060608060008981548110151561018d57fe5b9060005260206000209060060201965060018760050160003373ffffffffffffffffffffffffffffffffffffffff1673ffffffffffffffffffffffffffffffffffffffff1681526020019081526020016000205414156106645760028760050160003373ffffffffffffffffffffffffffffffffffffffff1673ffffffffffffffffffffffffffffffffffffffff1681526020019081526020016000208190555060009550600094505b8415156102ac576000876004016000888152602001908152602001600020805460018160011615610100020316600290049050141561029f576001945087876004016000888152602001908152602001600020908051906020019061029d929190610996565b505b8580600101965050610237565b60009350600092505b600354831015610663578660040160008481526020019081526020016000208054600181600116156101000203166002900480601f0160208091040260200160405190810160405280929190818152602001828054600181600116156101000203166002900480156103685780601f1061033d57610100808354040283529160200191610368565b820191906000526020600020905b81548152906001019060200180831161034b57829003601f168201915b50505050509150879050806040518082805190602001908083835b6020831015156103a85780518252602082019150602081019050602083039250610383565b6001836020036101000a038019825116818451168082178552505050505050905001915050604051809103902060001916826040518082805190602001908083835b60208310151561040f57805182526020820191506020810190506020830392506103ea565b6001836020036101000a0380198251168184511680821785525050505050509050019150506040518091039020600019161415610656578380600101945050600254841015156106555787876003019080519060200190610471929190610996565b507f51f1e1f00d186e79f8ea7c82be079fcdd49fe881904a9cdc1903345eb69d3831876000015488600101896002018a6003016040518085815260200180602001806020018060200184810384528781815460018160011615610100020316600290048152602001915080546001816001161561010002031660029004801561053b5780601f106105105761010080835404028352916020019161053b565b820191906000526020600020905b81548152906001019060200180831161051e57829003601f168201915b50508481038352868181546001816001161561010002031660029004815260200191508054600181600116156101000203166002900480156105be5780601f10610593576101008083540402835291602001916105be565b820191906000526020600020905b8154815290600101906020018083116105a157829003601f168201915b50508481038252858181546001816001161561010002031660029004815260200191508054600181600116156101000203166002900480156106415780601f1061061657610100808354040283529160200191610641565b820191906000526020600020905b81548152906001019060200180831161062457829003601f168201915b505097505050505050505060405180910390a15b5b82806001019350506102b5565b5b505050505050505050565b600080600060806040519081016040528060015481526020018681526020018581526020016020604051908101604052806000815250815250908060018154018082558091505090600182039060005260206000209060060201600090919290919091506000820151816000015560208201518160010190805190602001906106f9929190610a16565b506040820151816002019080519060200190610716929190610a16565b506060820151816003019080519060200190610733929190610a16565b505050915060006001830381548110151561074a57fe5b906000526020600020906006020190506001816005016000736c2339b46f41a06f09ca0051ddad54d1e582ba7773ffffffffffffffffffffffffffffffffffffffff1673ffffffffffffffffffffffffffffffffffffffff16815260200190815260200160002081905550600181600501600073b5346cf224c02186606e5f89eacc21ec2539807773ffffffffffffffffffffffffffffffffffffffff1673ffffffffffffffffffffffffffffffffffffffff16815260200190815260200160002081905550600181600501600073a2997f1ca363d11a0a35bb1ac0ff7849bc13e91473ffffffffffffffffffffffffffffffffffffffff1673ffffffffffffffffffffffffffffffffffffffff168152602001908152602001600020819055507f0312239616abfb14f7ffa065155abb0ca047274d86c965890db4c8a48b8ce4b66001548585604051808481526020018060200180602001838103835285818151815260200191508051906020019080838360005b838110156108db5780820151818401526020810190506108c0565b50505050905090810190601f1680156109085780820380516001836020036101000a031916815260200191505b50838103825284818151815260200191508051906020019080838360005b83811015610941578082015181840152602081019050610926565b50505050905090810190601f16801561096e5780820380516001836020036101000a031916815260200191505b509550505050505060405180910390a160016000815480929190600101919050555050505050565b828054600181600116156101000203166002900490600052602060002090601f016020900481019282601f106109d757805160ff1916838001178555610a05565b82800160010185558215610a05579182015b82811115610a045782518255916020019190600101906109e9565b5b509050610a129190610a96565b5090565b828054600181600116156101000203166002900490600052602060002090601f016020900481019282601f10610a5757805160ff1916838001178555610a85565b82800160010185558215610a85579182015b82811115610a84578251825591602001919060010190610a69565b5b509050610a929190610a96565b5090565b610ab891905b80821115610ab4576000816000905550600101610a9c565b5090565b905600a165627a7a7230582009d0a152898758cabcd1b86e7a9fe70b175de0c7f8294bddd82402257a342ed30029",
  "source": "pragma solidity >=0.4.21 <0.6.0;\r\n\r\ncontract Oracle {\r\n  Request[] requests; //list of requests made to the contract\r\n  uint currentId = 0; //increasing request id\r\n  uint minQuorum = 2; //minimum number of responses to receive before declaring final result\r\n  uint totalOracleCount = 3; // Hardcoded oracle count\r\n\r\n  // defines a general api request\r\n  struct Request {\r\n    uint id;                            //request id\r\n    string urlToQuery;                  //API url\r\n    string attributeToFetch;            //json attribute (key) to retrieve in the response\r\n    string agreedValue;                 //value from key\r\n    mapping(uint => string) anwers;     //answers provided by the oracles\r\n    mapping(address => uint) quorum;    //oracles which will query the answer (1=oracle hasn't voted, 2=oracle has voted)\r\n  }\r\n\r\n  //event that triggers oracle outside of the blockchain\r\n  event NewRequest (\r\n    uint id,\r\n    string urlToQuery,\r\n    string attributeToFetch\r\n  );\r\n\r\n  //triggered when there's a consensus on the final result\r\n  event UpdatedRequest (\r\n    uint id,\r\n    string urlToQuery,\r\n    string attributeToFetch,\r\n    string agreedValue\r\n  );\r\n\r\n  function createRequest (\r\n    string memory _urlToQuery,\r\n    string memory _attributeToFetch\r\n  )\r\n  public\r\n  {\r\n    uint length = requests.push(Request(currentId, _urlToQuery, _attributeToFetch, \"\"));\r\n    Request storage r = requests[length-1];\r\n\r\n    // Hardcoded oracles address\r\n    r.quorum[address(0x6c2339b46F41a06f09CA0051ddAD54D1e582bA77)] = 1;\r\n    r.quorum[address(0xb5346CF224c02186606e5f89EACC21eC25398077)] = 1;\r\n    r.quorum[address(0xa2997F1CA363D11a0a35bB1Ac0Ff7849bc13e914)] = 1;\r\n\r\n    // launch an event to be detected by oracle outside of blockchain\r\n    emit NewRequest (\r\n      currentId,\r\n      _urlToQuery,\r\n      _attributeToFetch\r\n    );\r\n\r\n    // increase request id\r\n    currentId++;\r\n  }\r\n\r\n  //called by the oracle to record its answer\r\n  function updateRequest (\r\n    uint _id,\r\n    string memory _valueRetrieved\r\n  ) public {\r\n\r\n    Request storage currRequest = requests[_id];\r\n\r\n    //check if oracle is in the list of trusted oracles\r\n    //and if the oracle hasn't voted yet\r\n    if(currRequest.quorum[address(msg.sender)] == 1){\r\n\r\n      //marking that this address has voted\r\n      currRequest.quorum[msg.sender] = 2;\r\n\r\n      //iterate through \"array\" of answers until a position if free and save the retrieved value\r\n      uint tmpI = 0;\r\n      bool found = false;\r\n      while(!found) {\r\n        //find first empty slot\r\n        if(bytes(currRequest.anwers[tmpI]).length == 0){\r\n          found = true;\r\n          currRequest.anwers[tmpI] = _valueRetrieved;\r\n        }\r\n        tmpI++;\r\n      }\r\n\r\n      uint currentQuorum = 0;\r\n\r\n      //iterate through oracle list and check if enough oracles(minimum quorum)\r\n      //have voted the same answer has the current one\r\n      for(uint i = 0; i < totalOracleCount; i++){\r\n        bytes memory a = bytes(currRequest.anwers[i]);\r\n        bytes memory b = bytes(_valueRetrieved);\r\n\r\n        if(keccak256(a) == keccak256(b)){\r\n          currentQuorum++;\r\n          if(currentQuorum >= minQuorum){\r\n            currRequest.agreedValue = _valueRetrieved;\r\n            emit UpdatedRequest (\r\n              currRequest.id,\r\n              currRequest.urlToQuery,\r\n              currRequest.attributeToFetch,\r\n              currRequest.agreedValue\r\n            );\r\n          }\r\n        }\r\n      }\r\n    }\r\n  }\r\n}\r\n",
  "sourcePath": "F:\\my-current-project\\20210106_Skycoin\\DecentralizedOracle\\on-chain-oracle\\contracts\\Oracle.sol",
  "compiler": {
    "name": "solc",
    "version": "0.4.24+commit.e67f0147.Emscripten.clang"
  },
  "schemaVersion": "2.0.0",
  "updatedAt": "2021-01-08T02:31:35.490Z"
}