{
  "contractName": "Oracle",
  "abi": [
    {
      "constant": true,
      "inputs": [],
      "name": "selection",
      "outputs": [
        {
          "name": "",
          "type": "address"
        }
      ],
      "payable": false,
      "stateMutability": "view",
      "type": "function"
    },
    {
      "anonymous": false,
      "inputs": [
        {
          "indexed": false,
          "name": "id",
          "type": "uint256"
        },
        {
          "indexed": false,
          "name": "urlToQuery",
          "type": "string"
        },
        {
          "indexed": false,
          "name": "attributeToFetch",
          "type": "string"
        }
      ],
      "name": "NewRequest",
      "type": "event"
    },
    {
      "anonymous": false,
      "inputs": [
        {
          "indexed": false,
          "name": "id",
          "type": "uint256"
        },
        {
          "indexed": false,
          "name": "urlToQuery",
          "type": "string"
        },
        {
          "indexed": false,
          "name": "attributeToFetch",
          "type": "string"
        },
        {
          "indexed": false,
          "name": "agreedValue",
          "type": "string"
        }
      ],
      "name": "UpdatedRequest",
      "type": "event"
    },
    {
      "constant": true,
      "inputs": [],
      "name": "getReputationStatus",
      "outputs": [
        {
          "name": "totalAssignedRequest",
          "type": "uint256"
        },
        {
          "name": "totalCompletedRequest",
          "type": "uint256"
        },
        {
          "name": "totalAcceptedRequest",
          "type": "uint256"
        },
        {
          "name": "amountPenalty",
          "type": "uint256"
        }
      ],
      "payable": false,
      "stateMutability": "view",
      "type": "function"
    },
    {
      "constant": false,
      "inputs": [],
      "name": "newOracle",
      "outputs": [],
      "payable": false,
      "stateMutability": "nonpayable",
      "type": "function"
    },
    {
      "constant": false,
      "inputs": [
        {
          "name": "addr",
          "type": "address"
        }
      ],
      "name": "removeOracle",
      "outputs": [],
      "payable": false,
      "stateMutability": "nonpayable",
      "type": "function"
    },
    {
      "constant": false,
      "inputs": [
        {
          "name": "_urlToQuery",
          "type": "string"
        },
        {
          "name": "_attributeToFetch",
          "type": "string"
        }
      ],
      "name": "createRequest",
      "outputs": [],
      "payable": false,
      "stateMutability": "nonpayable",
      "type": "function"
    },
    {
      "constant": false,
      "inputs": [
        {
          "name": "_id",
          "type": "uint256"
        },
        {
          "name": "_valueRetrieved",
          "type": "string"
        }
      ],
      "name": "updateRequest",
      "outputs": [],
      "payable": false,
      "stateMutability": "nonpayable",
      "type": "function"
    }
  ],
  "bytecode": "0x608060405260006002556002600355600360045573afec828ff5bd140ffb42a251ad7435155e7b29bd600760006101000a81548173ffffffffffffffffffffffffffffffffffffffff021916908373ffffffffffffffffffffffffffffffffffffffff16021790555034801561007457600080fd5b506113d1806100846000396000f300608060405260043610610078576000357c0100000000000000000000000000000000000000000000000000000000900463ffffffff16806315c639841461007d578063c3d3af67146100d4578063cfb0ac9914610114578063d9ddf7ab14610187578063df89f8191461019e578063fdc85fc41461024d575b600080fd5b34801561008957600080fd5b50610092610290565b604051808273ffffffffffffffffffffffffffffffffffffffff1673ffffffffffffffffffffffffffffffffffffffff16815260200191505060405180910390f35b3480156100e057600080fd5b506100e96102b5565b6040518085815260200184815260200183815260200182815260200194505050505060405180910390f35b34801561012057600080fd5b5061018560048036038101908080359060200190929190803590602001908201803590602001908080601f0160208091040260200160405190810160405280939291908181526020018383808284378201915050505050509192919290505050610321565b005b34801561019357600080fd5b5061019c610825565b005b3480156101aa57600080fd5b5061024b600480360381019080803590602001908201803590602001908080601f0160208091040260200160405190810160405280939291908181526020018383808284378201915050505050509192919290803590602001908201803590602001908080601f0160208091040260200160405190810160405280939291908181526020018383808284378201915050505050509192919290505050610b76565b005b34801561025957600080fd5b5061028e600480360381019080803573ffffffffffffffffffffffffffffffffffffffff169060200190929190505050610f88565b005b6000809054906101000a900473ffffffffffffffffffffffffffffffffffffffff1681565b6000806000806000600560003373ffffffffffffffffffffffffffffffffffffffff1673ffffffffffffffffffffffffffffffffffffffff1681526020019081526020016000209050806001015481600201548260030154836004015494509450945094505090919293565b60008060008060008060608060018a81548110151561033c57fe5b90600052602060002090600602019750600680549050965060018860050160003373ffffffffffffffffffffffffffffffffffffffff1673ffffffffffffffffffffffffffffffffffffffff1681526020019081526020016000205414156108195760028860050160003373ffffffffffffffffffffffffffffffffffffffff1673ffffffffffffffffffffffffffffffffffffffff1681526020019081526020016000208190555060009550600094505b84151561046357600088600401600088815260200190815260200160002080546001816001161561010002031660029004905014156104565760019450888860040160008881526020019081526020016000209080519060200190610454929190611254565b505b85806001019650506103ee565b60009350600092505b86831015610818578760040160008481526020019081526020016000208054600181600116156101000203166002900480601f01602080910402602001604051908101604052809291908181526020018280546001816001161561010002031660029004801561051d5780601f106104f25761010080835404028352916020019161051d565b820191906000526020600020905b81548152906001019060200180831161050057829003601f168201915b50505050509150889050806040518082805190602001908083835b60208310151561055d5780518252602082019150602081019050602083039250610538565b6001836020036101000a038019825116818451168082178552505050505050905001915050604051809103902060001916826040518082805190602001908083835b6020831015156105c4578051825260208201915060208101905060208303925061059f565b6001836020036101000a038019825116818451168082178552505050505050905001915050604051809103902060001916141561080b5783806001019450506003548410151561080a5788886003019080519060200190610626929190611254565b507f51f1e1f00d186e79f8ea7c82be079fcdd49fe881904a9cdc1903345eb69d38318860000154896001018a6002018b600301604051808581526020018060200180602001806020018481038452878181546001816001161561010002031660029004815260200191508054600181600116156101000203166002900480156106f05780601f106106c5576101008083540402835291602001916106f0565b820191906000526020600020905b8154815290600101906020018083116106d357829003601f168201915b50508481038352868181546001816001161561010002031660029004815260200191508054600181600116156101000203166002900480156107735780601f1061074857610100808354040283529160200191610773565b820191906000526020600020905b81548152906001019060200180831161075657829003601f168201915b50508481038252858181546001816001161561010002031660029004815260200191508054600181600116156101000203166002900480156107f65780601f106107cb576101008083540402835291602001916107f6565b820191906000526020600020905b8154815290600101906020018083116107d957829003601f168201915b505097505050505050505060405180910390a15b5b828060010193505061046c565b5b50505050505050505050565b6000806006805490509150600454821015156108cf576040517f08c379a00000000000000000000000000000000000000000000000000000000081526004018080602001828103825260298152602001807f546865206d6178696d756d206c696d6974206f66204f7261636c65732069732081526020017f65786365656465642e000000000000000000000000000000000000000000000081525060400191505060405180910390fd5b339050600073ffffffffffffffffffffffffffffffffffffffff16600560008373ffffffffffffffffffffffffffffffffffffffff1673ffffffffffffffffffffffffffffffffffffffff16815260200190815260200160002060000160009054906101000a900473ffffffffffffffffffffffffffffffffffffffff1673ffffffffffffffffffffffffffffffffffffffff16141515610b725780600560008373ffffffffffffffffffffffffffffffffffffffff1673ffffffffffffffffffffffffffffffffffffffff16815260200190815260200160002060000160006101000a81548173ffffffffffffffffffffffffffffffffffffffff021916908373ffffffffffffffffffffffffffffffffffffffff1602179055506000600560008373ffffffffffffffffffffffffffffffffffffffff1673ffffffffffffffffffffffffffffffffffffffff168152602001908152602001600020600101819055506000600560008373ffffffffffffffffffffffffffffffffffffffff1673ffffffffffffffffffffffffffffffffffffffff168152602001908152602001600020600201819055506000600560008373ffffffffffffffffffffffffffffffffffffffff1673ffffffffffffffffffffffffffffffffffffffff168152602001908152602001600020600301819055506000600560008373ffffffffffffffffffffffffffffffffffffffff1673ffffffffffffffffffffffffffffffffffffffff1681526020019081526020016000206004018190555060068190806001815401808255809150509060018203906000526020600020016000909192909190916101000a81548173ffffffffffffffffffffffffffffffffffffffff021916908373ffffffffffffffffffffffffffffffffffffffff160217905550505b5050565b60008060006060600060016080604051908101604052806002548152602001898152602001888152602001602060405190810160405280600081525081525090806001815401808255809150509060018203906000526020600020906006020160009091929091909150600082015181600001556020820151816001019080519060200190610c069291906112d4565b506040820151816002019080519060200190610c239291906112d4565b506060820151816003019080519060200190610c409291906112d4565b50505094506001808603815481101515610c5657fe5b9060005260206000209060060201935060068054905092506000809054906101000a900473ffffffffffffffffffffffffffffffffffffffff1673ffffffffffffffffffffffffffffffffffffffff1663e832993d84600360028702811515610cbb57fe5b046040518363ffffffff167c01000000000000000000000000000000000000000000000000000000000281526004018083815260200182815260200192505050600060405180830381600087803b158015610d1557600080fd5b505af1158015610d29573d6000803e3d6000fd5b505050506040513d6000823e3d601f19601f820116820180604052506020811015610d5357600080fd5b810190808051640100000000811115610d6b57600080fd5b82810190506020810184811115610d8157600080fd5b8151856020820283011164010000000082111715610d9e57600080fd5b50509291905050509150600090505b8151811015610e5a57600184600501600060068585815181101515610dce57fe5b90602001906020020151815481101515610de457fe5b9060005260206000200160009054906101000a900473ffffffffffffffffffffffffffffffffffffffff1673ffffffffffffffffffffffffffffffffffffffff1673ffffffffffffffffffffffffffffffffffffffff168152602001908152602001600020819055508080600101915050610dad565b7f0312239616abfb14f7ffa065155abb0ca047274d86c965890db4c8a48b8ce4b66002548888604051808481526020018060200180602001838103835285818151815260200191508051906020019080838360005b83811015610eca578082015181840152602081019050610eaf565b50505050905090810190601f168015610ef75780820380516001836020036101000a031916815260200191505b50838103825284818151815260200191508051906020019080838360005b83811015610f30578082015181840152602081019050610f15565b50505050905090810190601f168015610f5d5780820380516001836020036101000a031916815260200191505b509550505050505060405180910390a160026000815480929190600101919050555050505050505050565b600080600760009054906101000a900473ffffffffffffffffffffffffffffffffffffffff1673ffffffffffffffffffffffffffffffffffffffff163373ffffffffffffffffffffffffffffffffffffffff16141515611050576040517f08c379a00000000000000000000000000000000000000000000000000000000081526004018080602001828103825260208152602001807f596f75206861766520746f20626520616e2061646d696e6973747261746f722e81525060200191505060405180910390fd5b6000915060068054905090505b8082101561124f578273ffffffffffffffffffffffffffffffffffffffff1660068381548110151561108b57fe5b9060005260206000200160009054906101000a900473ffffffffffffffffffffffffffffffffffffffff1673ffffffffffffffffffffffffffffffffffffffff161415611242576006600182038154811015156110e457fe5b9060005260206000200160009054906101000a900473ffffffffffffffffffffffffffffffffffffffff1660068381548110151561111e57fe5b9060005260206000200160006101000a81548173ffffffffffffffffffffffffffffffffffffffff021916908373ffffffffffffffffffffffffffffffffffffffff16021790555060066001820381548110151561117857fe5b9060005260206000200160006101000a81549073ffffffffffffffffffffffffffffffffffffffff021916905560068054809190600190036111ba9190611354565b506000600560008573ffffffffffffffffffffffffffffffffffffffff1673ffffffffffffffffffffffffffffffffffffffff16815260200190815260200160002060000160006101000a81548173ffffffffffffffffffffffffffffffffffffffff021916908373ffffffffffffffffffffffffffffffffffffffff16021790555061124f565b818060010192505061105d565b505050565b828054600181600116156101000203166002900490600052602060002090601f016020900481019282601f1061129557805160ff19168380011785556112c3565b828001600101855582156112c3579182015b828111156112c25782518255916020019190600101906112a7565b5b5090506112d09190611380565b5090565b828054600181600116156101000203166002900490600052602060002090601f016020900481019282601f1061131557805160ff1916838001178555611343565b82800160010185558215611343579182015b82811115611342578251825591602001919060010190611327565b5b5090506113509190611380565b5090565b81548183558181111561137b5781836000526020600020918201910161137a9190611380565b5b505050565b6113a291905b8082111561139e576000816000905550600101611386565b5090565b905600a165627a7a723058200ee8682f1c0efc60023caf748dd586c7a31aaeecf96ff09f5a5a9aa7f61dd3ae0029",
  "source": "pragma solidity >=0.4.21 <0.6.0;\r\n\r\nimport \"./Selection.sol\";\r\n\r\ncontract Oracle {\r\n  Selection public selection;\r\n\r\n  Request[] requests; //list of requests made to the contract\r\n  uint currentId = 0; //increasing request id\r\n  uint minQuorum = 2; //minimum number of responses to receive before declaring final result\r\n  uint totalOracleCount = 3; // Hardcoded oracle count\r\n  mapping(address => Reputation) oracles;\r\n  address[] oracleAddresses;\r\n  address administrator = address(0xafec828FF5BD140FfB42a251AD7435155E7b29bd);\r\n\r\n  // defines a general api request\r\n  struct Request {\r\n    uint id;                            //request id\r\n    string urlToQuery;                  //API url\r\n    string attributeToFetch;            //json attribute (key) to retrieve in the response\r\n    string agreedValue;                 //value from key\r\n    mapping(uint => string) anwers;     //answers provided by the oracles\r\n    mapping(address => uint) quorum;    //oracles which will query the answer (1=oracle hasn't voted, 2=oracle has voted)\r\n  }\r\n\r\n  struct Reputation {\r\n    address addr;\r\n    uint totalAssignedRequest;        //total number of past requests that an oracle has agreed to, both fulfilled and unfulfileed\r\n    uint totalCompletedRequest;       //total number of past requests that an oracle has fulfileed\r\n    uint totalAcceptedRequest;        //total number of requests that have been accepted\r\n    uint amountPenalty;               //amount of penalty payments\r\n  }\r\n\r\n  //event that triggers oracle outside of the blockchain\r\n  event NewRequest (\r\n    uint id,\r\n    string urlToQuery,\r\n    string attributeToFetch\r\n  );\r\n\r\n  //triggered when there's a consensus on the final result\r\n  event UpdatedRequest (\r\n    uint id,\r\n    string urlToQuery,\r\n    string attributeToFetch,\r\n    string agreedValue\r\n  );\r\n\r\n  function getReputationStatus () public view returns (uint totalAssignedRequest, uint totalCompletedRequest, uint totalAcceptedRequest, uint amountPenalty)\r\n  {\r\n    Reputation storage datum = oracles[msg.sender];\r\n    return (datum.totalAssignedRequest, datum.totalCompletedRequest, datum.totalAcceptedRequest, datum.amountPenalty);\r\n  }\r\n\r\n  function newOracle () public\r\n  {\r\n    uint oracleCount = oracleAddresses.length;\r\n    require(oracleCount < totalOracleCount, \"The maximum limit of Oracles is exceeded.\");\r\n\r\n    address sender = msg.sender;\r\n    if (oracles[sender].addr != address(0)) {\r\n      oracles[sender].addr = sender;\r\n      oracles[sender].totalAssignedRequest = 0;\r\n      oracles[sender].totalCompletedRequest = 0;\r\n      oracles[sender].totalAcceptedRequest = 0;\r\n      oracles[sender].amountPenalty = 0;\r\n      oracleAddresses.push(sender);\r\n    }\r\n  }\r\n\r\n  function removeOracle (address addr) public\r\n  {\r\n    require(msg.sender == administrator, \"You have to be an administrator.\");\r\n    uint i = 0;\r\n    uint oracleCount = oracleAddresses.length;\r\n\r\n    for (; i < oracleCount ; i ++) {\r\n      if (oracleAddresses[i] == addr) {\r\n        oracleAddresses[i] = oracleAddresses[oracleCount - 1];\r\n        delete oracleAddresses[oracleCount - 1];\r\n        oracleAddresses.length --;\r\n\r\n        oracles[addr].addr = address(0);      // Reset reputation of oracle to zero\r\n        break;\r\n      }\r\n    }\r\n  }\r\n\r\n  function createRequest (\r\n    string memory _urlToQuery,\r\n    string memory _attributeToFetch\r\n  )\r\n  public\r\n  {\r\n    uint length = requests.push(Request(currentId, _urlToQuery, _attributeToFetch, \"\"));\r\n    Request storage r = requests[length-1];\r\n\r\n    uint oracleCount = oracleAddresses.length;\r\n\r\n    uint[] memory selectedOracles = selection.getSelectedOracles(oracleCount, (oracleCount * 2) / 3);\r\n    uint i = 0;\r\n\r\n    for (; i < selectedOracles.length ; i ++) {\r\n      r.quorum[oracleAddresses[selectedOracles[i]]] = 1;\r\n    }\r\n\r\n    // launch an event to be detected by oracle outside of blockchain\r\n    emit NewRequest (\r\n      currentId,\r\n      _urlToQuery,\r\n      _attributeToFetch\r\n    );\r\n\r\n    // increase request id\r\n    currentId++;\r\n  }\r\n\r\n  //called by the oracle to record its answer\r\n  function updateRequest (\r\n    uint _id,\r\n    string memory _valueRetrieved\r\n  ) public {\r\n\r\n    Request storage currRequest = requests[_id];\r\n    uint oracleCount = oracleAddresses.length;\r\n\r\n    //check if oracle is in the list of trusted oracles\r\n    //and if the oracle hasn't voted yet\r\n    if(currRequest.quorum[address(msg.sender)] == 1){\r\n\r\n      //marking that this address has voted\r\n      currRequest.quorum[msg.sender] = 2;\r\n\r\n      //iterate through \"array\" of answers until a position if free and save the retrieved value\r\n      uint tmpI = 0;\r\n      bool found = false;\r\n      while(!found) {\r\n        //find first empty slot\r\n        if(bytes(currRequest.anwers[tmpI]).length == 0){\r\n          found = true;\r\n          currRequest.anwers[tmpI] = _valueRetrieved;\r\n        }\r\n        tmpI++;\r\n      }\r\n\r\n      uint currentQuorum = 0;\r\n\r\n      //iterate through oracle list and check if enough oracles(minimum quorum)\r\n      //have voted the same answer has the current one\r\n      for(uint i = 0; i < oracleCount; i++){\r\n        bytes memory a = bytes(currRequest.anwers[i]);\r\n        bytes memory b = bytes(_valueRetrieved);\r\n\r\n        if(keccak256(a) == keccak256(b)){\r\n          currentQuorum++;\r\n          if(currentQuorum >= minQuorum){\r\n            currRequest.agreedValue = _valueRetrieved;\r\n            emit UpdatedRequest (\r\n              currRequest.id,\r\n              currRequest.urlToQuery,\r\n              currRequest.attributeToFetch,\r\n              currRequest.agreedValue\r\n            );\r\n          }\r\n        }\r\n      }\r\n    }\r\n  }\r\n}\r\n",
  "sourcePath": "F:\\my-current-project\\20210106_Debase\\DecentralizedOracle\\on-chain-oracle\\contracts\\Oracle.sol",
  "compiler": {
    "name": "solc",
    "version": "0.4.24+commit.e67f0147.Emscripten.clang"
  },
  "schemaVersion": "2.0.0",
  "updatedAt": "2021-01-17T07:03:02.814Z"
}