{
  "contractName": "Oracle",
  "abi": [
    {
      "inputs": [
        {
          "internalType": "address",
          "name": "tokenAddress",
          "type": "address"
        }
      ],
      "stateMutability": "nonpayable",
      "type": "constructor"
    },
    {
      "anonymous": false,
      "inputs": [
        {
          "indexed": false,
          "internalType": "uint256",
          "name": "id",
          "type": "uint256"
        }
      ],
      "name": "DeletedRequest",
      "type": "event"
    },
    {
      "anonymous": false,
      "inputs": [
        {
          "indexed": false,
          "internalType": "uint256",
          "name": "id",
          "type": "uint256"
        },
        {
          "indexed": false,
          "internalType": "string",
          "name": "requestType",
          "type": "string"
        },
        {
          "components": [
            {
              "internalType": "string",
              "name": "urlToQuery",
              "type": "string"
            },
            {
              "internalType": "string",
              "name": "attributeToFetch",
              "type": "string"
            },
            {
              "internalType": "uint256",
              "name": "decimals",
              "type": "uint256"
            }
          ],
          "indexed": false,
          "internalType": "struct OracleInterface.RequestParam[]",
          "name": "params",
          "type": "tuple[]"
        }
      ],
      "name": "NewRequest",
      "type": "event"
    },
    {
      "anonymous": false,
      "inputs": [
        {
          "indexed": false,
          "internalType": "uint256",
          "name": "id",
          "type": "uint256"
        },
        {
          "indexed": false,
          "internalType": "string",
          "name": "requestType",
          "type": "string"
        },
        {
          "components": [
            {
              "internalType": "string",
              "name": "urlToQuery",
              "type": "string"
            },
            {
              "internalType": "string",
              "name": "attributeToFetch",
              "type": "string"
            },
            {
              "internalType": "uint256",
              "name": "decimals",
              "type": "uint256"
            }
          ],
          "indexed": false,
          "internalType": "struct OracleInterface.RequestParam[]",
          "name": "params",
          "type": "tuple[]"
        },
        {
          "indexed": false,
          "internalType": "string",
          "name": "agreedValue",
          "type": "string"
        },
        {
          "indexed": false,
          "internalType": "uint256",
          "name": "agreedPrice",
          "type": "uint256"
        }
      ],
      "name": "UpdatedRequest",
      "type": "event"
    },
    {
      "inputs": [],
      "name": "EXPIRY_TIME",
      "outputs": [
        {
          "internalType": "uint256",
          "name": "",
          "type": "uint256"
        }
      ],
      "stateMutability": "view",
      "type": "function"
    },
    {
      "inputs": [],
      "name": "owner",
      "outputs": [
        {
          "internalType": "address",
          "name": "",
          "type": "address"
        }
      ],
      "stateMutability": "view",
      "type": "function"
    },
    {
      "inputs": [],
      "name": "token",
      "outputs": [
        {
          "internalType": "contract IDEOR",
          "name": "",
          "type": "address"
        }
      ],
      "stateMutability": "view",
      "type": "function"
    },
    {
      "inputs": [
        {
          "internalType": "address",
          "name": "newOwner",
          "type": "address"
        }
      ],
      "name": "transferOwnership",
      "outputs": [],
      "stateMutability": "nonpayable",
      "type": "function"
    },
    {
      "inputs": [],
      "name": "newOracle",
      "outputs": [],
      "stateMutability": "nonpayable",
      "type": "function"
    },
    {
      "inputs": [
        {
          "internalType": "string",
          "name": "_requestType",
          "type": "string"
        },
        {
          "components": [
            {
              "internalType": "string",
              "name": "urlToQuery",
              "type": "string"
            },
            {
              "internalType": "string",
              "name": "attributeToFetch",
              "type": "string"
            },
            {
              "internalType": "uint256",
              "name": "decimals",
              "type": "uint256"
            }
          ],
          "internalType": "struct OracleInterface.RequestParam[]",
          "name": "_params",
          "type": "tuple[]"
        }
      ],
      "name": "createRequest",
      "outputs": [],
      "stateMutability": "nonpayable",
      "type": "function"
    },
    {
      "inputs": [
        {
          "internalType": "uint256",
          "name": "_id",
          "type": "uint256"
        }
      ],
      "name": "deleteRequest",
      "outputs": [],
      "stateMutability": "nonpayable",
      "type": "function"
    },
    {
      "inputs": [
        {
          "internalType": "uint256",
          "name": "_id",
          "type": "uint256"
        },
        {
          "internalType": "string",
          "name": "_valueRetrieved",
          "type": "string"
        },
        {
          "internalType": "uint256",
          "name": "_priceRetrieved",
          "type": "uint256"
        }
      ],
      "name": "updateRequest",
      "outputs": [],
      "stateMutability": "nonpayable",
      "type": "function"
    }
  ],
  "bytecode": "0x608060405260016003556107d06004556103e867ffffffffffffffff811180156200002957600080fd5b50604051908082528060200260200182016040528015620000595781602001602082028036833780820191505090505b50600790805190602001906200007192919062000255565b506000600855670de0b6b3a76400006009553480156200009057600080fd5b5060405162003bd738038062003bd78339818101604052810190620000b691906200036d565b336000806101000a81548173ffffffffffffffffffffffffffffffffffffffff021916908373ffffffffffffffffffffffffffffffffffffffff16021790555080600160006101000a81548173ffffffffffffffffffffffffffffffffffffffff021916908373ffffffffffffffffffffffffffffffffffffffff1602179055506002604051806101200160405280600081526020016040518060200160405280600081525081526020016040518060200160405280600081525081526020016000815260200160008152602001600081526020016000815260200160008152602001600081525090806001815401808255809150506001900390600052602060002090600d0201600090919091909150600082015181600001556020820151816001019080519060200190620001ef929190620002a7565b5060408201518160020190805190602001906200020e929190620002a7565b50606082015181600301556080820151816004015560a0820151816005015560c0820151816006015560e082015181600701556101008201518160080155505050620003e7565b82805482825590600052602060002090810192821562000294579160200282015b828111156200029357825182559160200191906001019062000276565b5b509050620002a391906200032e565b5090565b828054600181600116156101000203166002900490600052602060002090601f016020900481019282601f10620002ea57805160ff19168380011785556200031b565b828001600101855582156200031b579182015b828111156200031a578251825591602001919060010190620002fd565b5b5090506200032a91906200032e565b5090565b6200035391905b808211156200034f57600081600090555060010162000335565b5090565b90565b6000815190506200036781620003cd565b92915050565b6000602082840312156200038057600080fd5b6000620003908482850162000356565b91505092915050565b6000620003a682620003ad565b9050919050565b600073ffffffffffffffffffffffffffffffffffffffff82169050919050565b620003d88162000399565b8114620003e457600080fd5b50565b6137e080620003f76000396000f3fe608060405234801561001057600080fd5b50600436106100885760003560e01c8063d9ddf7ab1161005b578063d9ddf7ab14610101578063e9a21bcd1461010b578063f2fde38b14610127578063fc0c546a1461014357610088565b806307cba7791461008d5780634b602282146100a95780638da5cb5b146100c7578063a29c9a14146100e5575b600080fd5b6100a760048036038101906100a29190612a88565b610161565b005b6100b1610dcf565b6040516100be9190613401565b60405180910390f35b6100cf610dd4565b6040516100dc9190613210565b60405180910390f35b6100ff60048036038101906100fa91906129ca565b610df9565b005b6101096118d9565b005b61012560048036038101906101209190612a36565b611d25565b005b610141600480360381019061013c9190612978565b611dd5565b005b61014b611ea6565b60405161015891906132a6565b60405180910390f35b60008090505b6103e88110156101d857836007828154811061017f57fe5b906000526020600020015414156101cb576040517f08c379a00000000000000000000000000000000000000000000000000000000081526004016101c2906132c1565b60405180910390fd5b8080600101915050610167565b506000600284815481106101e857fe5b90600052602060002090600d0201905060608390506000839050600061021b846003015442611ecc90919063ffffffff16565b905060b48110610260576040517f08c379a0000000000000000000000000000000000000000000000000000000008152600401610257906132e1565b60405180910390fd5b42600560003373ffffffffffffffffffffffffffffffffffffffff1673ffffffffffffffffffffffffffffffffffffffff1681526020019081526020016000206005018190555060006006805490509050600185600c0160003373ffffffffffffffffffffffffffffffffffffffff1673ffffffffffffffffffffffffffffffffffffffff168152602001908152602001600020541415610dc5576060856001018054600181600116156101000203166002900480601f0160208091040260200160405190810160405280929190818152602001828054600181600116156101000203166002900480156103955780601f1061036a57610100808354040283529160200191610395565b820191906000526020600020905b81548152906001019060200180831161037857829003601f168201915b5050505050905060606040518060400160405280600981526020017f4461746151756572790000000000000000000000000000000000000000000000815250905060008090508180519060200120838051906020012014156103f657600190505b600560003373ffffffffffffffffffffffffffffffffffffffff1673ffffffffffffffffffffffffffffffffffffffff1681526020019081526020016000206002016000815480929190600101919050555061049d85600560003373ffffffffffffffffffffffffffffffffffffffff1673ffffffffffffffffffffffffffffffffffffffff16815260200190815260200160002060040154611f2290919063ffffffff16565b600560003373ffffffffffffffffffffffffffffffffffffffff1673ffffffffffffffffffffffffffffffffffffffff16815260200190815260200160002060040181905550600288600c0160003373ffffffffffffffffffffffffffffffffffffffff1673ffffffffffffffffffffffffffffffffffffffff16815260200190815260200160002081905550600181141561058e578988600a0160003373ffffffffffffffffffffffffffffffffffffffff1673ffffffffffffffffffffffffffffffffffffffff1681526020019081526020016000209080519060200190610588929190612658565b506105d5565b8888600b0160003373ffffffffffffffffffffffffffffffffffffffff1673ffffffffffffffffffffffffffffffffffffffff168152602001908152602001600020819055505b600080905060008090505b858110156106d057600161062e848c600685815481106105fc57fe5b9060005260206000200160009054906101000a900473ffffffffffffffffffffffffffffffffffffffff168d8d611f77565b14156106c3576106c0600560006006848154811061064857fe5b9060005260206000200160009054906101000a900473ffffffffffffffffffffffffffffffffffffffff1673ffffffffffffffffffffffffffffffffffffffff1673ffffffffffffffffffffffffffffffffffffffff1681526020019081526020016000206006015483611f2290919063ffffffff16565b91505b80806001019150506105e0565b5088600401548110610dc05788600001546007600854815481106106f057fe5b90600052602060002001819055506107186103e86001600854016121c290919063ffffffff16565b600881905550600061073b8a600601548b6005015461221990919063ffffffff16565b905060008090505b86811015610c97576001610791858d6006858154811061075f57fe5b9060005260206000200160009054906101000a900473ffffffffffffffffffffffffffffffffffffffff168e8e611f77565b1415610add57600061083b60056000600685815481106107ad57fe5b9060005260206000200160009054906101000a900473ffffffffffffffffffffffffffffffffffffffff1673ffffffffffffffffffffffffffffffffffffffff1673ffffffffffffffffffffffffffffffffffffffff1681526020019081526020016000206006015461082d868f6005015461221990919063ffffffff16565b61227590919063ffffffff16565b9050600560006006848154811061084e57fe5b9060005260206000200160009054906101000a900473ffffffffffffffffffffffffffffffffffffffff1673ffffffffffffffffffffffffffffffffffffffff1673ffffffffffffffffffffffffffffffffffffffff168152602001908152602001600020600301600081548092919060010191905055506109528160056000600686815481106108db57fe5b9060005260206000200160009054906101000a900473ffffffffffffffffffffffffffffffffffffffff1673ffffffffffffffffffffffffffffffffffffffff1673ffffffffffffffffffffffffffffffffffffffff16815260200190815260200160002060080154611f2290919063ffffffff16565b600560006006858154811061096357fe5b9060005260206000200160009054906101000a900473ffffffffffffffffffffffffffffffffffffffff1673ffffffffffffffffffffffffffffffffffffffff1673ffffffffffffffffffffffffffffffffffffffff16815260200190815260200160002060080181905550600160009054906101000a900473ffffffffffffffffffffffffffffffffffffffff1673ffffffffffffffffffffffffffffffffffffffff166323b872dd6000809054906101000a900473ffffffffffffffffffffffffffffffffffffffff1660068581548110610a3c57fe5b9060005260206000200160009054906101000a900473ffffffffffffffffffffffffffffffffffffffff168685016040518463ffffffff1660e01b8152600401610a8893929190613246565b602060405180830381600087803b158015610aa257600080fd5b505af1158015610ab6573d6000803e3d6000fd5b505050506040513d601f19601f82011682018060405250810190610ada91906129a1565b50505b610c0d6005600060068481548110610af157fe5b9060005260206000200160009054906101000a900473ffffffffffffffffffffffffffffffffffffffff1673ffffffffffffffffffffffffffffffffffffffff1673ffffffffffffffffffffffffffffffffffffffff168152602001908152602001600020604051806101200160405290816000820160009054906101000a900473ffffffffffffffffffffffffffffffffffffffff1673ffffffffffffffffffffffffffffffffffffffff1673ffffffffffffffffffffffffffffffffffffffff168152602001600182015481526020016002820154815260200160038201548152602001600482015481526020016005820154815260200160068201548152602001600782015481526020016008820154815250506122e5565b6005600060068481548110610c1e57fe5b9060005260206000200160009054906101000a900473ffffffffffffffffffffffffffffffffffffffff1673ffffffffffffffffffffffffffffffffffffffff1673ffffffffffffffffffffffffffffffffffffffff168152602001908152602001600020600601819055508080600101915050610743565b50888a6002019080519060200190610cb0929190612658565b50878a60070181905550600080600090505b8b60080154811015610d7657818c6009016000838152602001908152602001600020908060018154018082558091505060019003906000526020600020906003020160009091909190915060008201816000019080546001816001161561010002031660029004610d349291906126d8565b5060018201816001019080546001816001161561010002031660029004610d5c9291906126d8565b506002820154816002015550508080600101915050610cc2565b507f9d1ad78d75a5fc766bd8f287dd041b5a7d4f1233f1f8037b15c6e440a44751918b600001548c600101838d8d604051610db5959493929190613461565b60405180910390a150505b505050505b5050505050505050565b60b481565b6000809054906101000a900473ffffffffffffffffffffffffffffffffffffffff1681565b600954600160009054906101000a900473ffffffffffffffffffffffffffffffffffffffff1673ffffffffffffffffffffffffffffffffffffffff166370a08231336040518263ffffffff1660e01b8152600401610e57919061322b565b60206040518083038186803b158015610e6f57600080fd5b505afa158015610e83573d6000803e3d6000fd5b505050506040513d601f19601f82011682018060405250810190610ea79190612a5f565b1015610ee8576040517f08c379a0000000000000000000000000000000000000000000000000000000008152600401610edf906133a1565b60405180910390fd5b606082905060008090505b6006805490508110156112ea57600060068281548110610f0f57fe5b9060005260206000200160009054906101000a900473ffffffffffffffffffffffffffffffffffffffff1690506000600160009054906101000a900473ffffffffffffffffffffffffffffffffffffffff1673ffffffffffffffffffffffffffffffffffffffff166370a08231836040518263ffffffff1660e01b8152600401610f999190613210565b60206040518083038186803b158015610fb157600080fd5b505afa158015610fc5573d6000803e3d6000fd5b505050506040513d601f19601f82011682018060405250810190610fe99190612a5f565b9050600560008373ffffffffffffffffffffffffffffffffffffffff1673ffffffffffffffffffffffffffffffffffffffff1681526020019081526020016000206007015481108061113357506000611131600560008573ffffffffffffffffffffffffffffffffffffffff1673ffffffffffffffffffffffffffffffffffffffff168152602001908152602001600020604051806101200160405290816000820160009054906101000a900473ffffffffffffffffffffffffffffffffffffffff1673ffffffffffffffffffffffffffffffffffffffff1673ffffffffffffffffffffffffffffffffffffffff16815260200160018201548152602001600282015481526020016003820154815260200160048201548152602001600582015481526020016006820154815260200160078201548152602001600882015481525050612373565b145b156112db5760066001600680549050038154811061114d57fe5b9060005260206000200160009054906101000a900473ffffffffffffffffffffffffffffffffffffffff166006848154811061118557fe5b9060005260206000200160006101000a81548173ffffffffffffffffffffffffffffffffffffffff021916908373ffffffffffffffffffffffffffffffffffffffff1602179055506006600160068054905003815481106111e257fe5b9060005260206000200160006101000a81549073ffffffffffffffffffffffffffffffffffffffff0219169055600680548061121a57fe5b6001900381819060005260206000200160006101000a81549073ffffffffffffffffffffffffffffffffffffffff021916905590556000600560008473ffffffffffffffffffffffffffffffffffffffff1673ffffffffffffffffffffffffffffffffffffffff16815260200190815260200160002060000160006101000a81548173ffffffffffffffffffffffffffffffffffffffff021916908373ffffffffffffffffffffffffffffffffffffffff1602179055508280600190039350505b82806001019350505050610ef3565b60006006805490509050600061131d600361130f60028561227590919063ffffffff16565b61221990919063ffffffff16565b90506002604051806101200160405280600354815260200186815260200160405180602001604052806000815250815260200142815260200160008152602001600954815260200183815260200160008152602001875181525090806001815401808255809150506001900390600052602060002090600d02016000909190919091506000820151816000015560208201518160010190805190602001906113c6929190612658565b5060408201518160020190805190602001906113e3929190612658565b50606082015181600301556080820151816004015560a0820151816005015560c0820151816006015560e08201518160070155610100820151816008015550506000600280549050905060006002600183038154811061143f57fe5b90600052602060002090600d02019050600094505b86518510156114da5786858151811061146957fe5b602002602001015181600901600087815260200190815260200160002060008201518160000190805190602001906114a2929190612658565b5060208201518160010190805190602001906114bf929190612658565b50604082015181600201559050508480600101955050611454565b60606114e685856123ae565b9050600080905060006115048660095461221990919063ffffffff16565b9050600097505b825188101561177b5760006006848a8151811061152457fe5b60200260200101518154811061153657fe5b9060005260206000200160009054906101000a900473ffffffffffffffffffffffffffffffffffffffff169050600185600c0160008373ffffffffffffffffffffffffffffffffffffffff1673ffffffffffffffffffffffffffffffffffffffff168152602001908152602001600020819055506115ff600560008373ffffffffffffffffffffffffffffffffffffffff1673ffffffffffffffffffffffffffffffffffffffff1681526020019081526020016000206006015484611f2290919063ffffffff16565b9250600560008273ffffffffffffffffffffffffffffffffffffffff1673ffffffffffffffffffffffffffffffffffffffff1681526020019081526020016000206001016000815480929190600101919050555081600560008373ffffffffffffffffffffffffffffffffffffffff1673ffffffffffffffffffffffffffffffffffffffff16815260200190815260200160002060070181905550600160009054906101000a900473ffffffffffffffffffffffffffffffffffffffff1673ffffffffffffffffffffffffffffffffffffffff166323b872dd826000809054906101000a900473ffffffffffffffffffffffffffffffffffffffff16856040518463ffffffff1660e01b815260040161171a93929190613246565b602060405180830381600087803b15801561173457600080fd5b505af1158015611748573d6000803e3d6000fd5b505050506040513d601f19601f8201168201806040525081019061176c91906129a1565b5050878060010198505061150b565b6117a2600361179460028561227590919063ffffffff16565b61221990919063ffffffff16565b8460040181905550600160009054906101000a900473ffffffffffffffffffffffffffffffffffffffff1673ffffffffffffffffffffffffffffffffffffffff1663a9059cbb6000809054906101000a900473ffffffffffffffffffffffffffffffffffffffff166009546040518363ffffffff1660e01b815260040161182a92919061327d565b602060405180830381600087803b15801561184457600080fd5b505af1158015611858573d6000803e3d6000fd5b505050506040513d601f19601f8201168201806040525081019061187c91906129a1565b507fbe8fb34786b3b8f14d892b004fee661be9367d631aa471b303951c963ed709f96003548a8c6040516118b29392919061341c565b60405180910390a16003600081548092919060010191905055505050505050505050505050565b600060068054905090506000339050600454821061192c576040517f08c379a0000000000000000000000000000000000000000000000000000000008152600401611923906133e1565b60405180910390fd5b600073ffffffffffffffffffffffffffffffffffffffff16600560008373ffffffffffffffffffffffffffffffffffffffff1673ffffffffffffffffffffffffffffffffffffffff16815260200190815260200160002060000160009054906101000a900473ffffffffffffffffffffffffffffffffffffffff1673ffffffffffffffffffffffffffffffffffffffff16146119fd576040517f08c379a00000000000000000000000000000000000000000000000000000000081526004016119f490613341565b60405180910390fd5b80600560008373ffffffffffffffffffffffffffffffffffffffff1673ffffffffffffffffffffffffffffffffffffffff16815260200190815260200160002060000160006101000a81548173ffffffffffffffffffffffffffffffffffffffff021916908373ffffffffffffffffffffffffffffffffffffffff1602179055506000600560008373ffffffffffffffffffffffffffffffffffffffff1673ffffffffffffffffffffffffffffffffffffffff168152602001908152602001600020600101819055506000600560008373ffffffffffffffffffffffffffffffffffffffff1673ffffffffffffffffffffffffffffffffffffffff168152602001908152602001600020600201819055506000600560008373ffffffffffffffffffffffffffffffffffffffff1673ffffffffffffffffffffffffffffffffffffffff168152602001908152602001600020600301819055506000600560008373ffffffffffffffffffffffffffffffffffffffff1673ffffffffffffffffffffffffffffffffffffffff1681526020019081526020016000206004018190555042600560008373ffffffffffffffffffffffffffffffffffffffff1673ffffffffffffffffffffffffffffffffffffffff168152602001908152602001600020600501819055506001600560008373ffffffffffffffffffffffffffffffffffffffff1673ffffffffffffffffffffffffffffffffffffffff16815260200190815260200160002060060181905550600954600560008373ffffffffffffffffffffffffffffffffffffffff1673ffffffffffffffffffffffffffffffffffffffff168152602001908152602001600020600701819055506000600560008373ffffffffffffffffffffffffffffffffffffffff1673ffffffffffffffffffffffffffffffffffffffff168152602001908152602001600020600801819055506006819080600181540180825580915050600190039060005260206000200160009091909190916101000a81548173ffffffffffffffffffffffffffffffffffffffff021916908373ffffffffffffffffffffffffffffffffffffffff1602179055505050565b60028181548110611d3257fe5b90600052602060002090600d0201600080820160009055600182016000611d59919061275f565b600282016000611d69919061275f565b60038201600090556004820160009055600582016000905560068201600090556007820160009055600882016000905550507f5ae9509bae7767d72c4a4697d5775c815acd94f0168c394b9e0163901681c97181604051611dca9190613401565b60405180910390a150565b6000809054906101000a900473ffffffffffffffffffffffffffffffffffffffff1673ffffffffffffffffffffffffffffffffffffffff163373ffffffffffffffffffffffffffffffffffffffff1614611e2e57600080fd5b600073ffffffffffffffffffffffffffffffffffffffff168173ffffffffffffffffffffffffffffffffffffffff1614611ea357806000806101000a81548173ffffffffffffffffffffffffffffffffffffffff021916908373ffffffffffffffffffffffffffffffffffffffff1602179055505b50565b600160009054906101000a900473ffffffffffffffffffffffffffffffffffffffff1681565b600082821115611f11576040517f08c379a0000000000000000000000000000000000000000000000000000000008152600401611f0890613321565b60405180910390fd5b600082840390508091505092915050565b600080828401905083811015611f6d576040517f08c379a0000000000000000000000000000000000000000000000000000000008152600401611f6490613301565b60405180910390fd5b8091505092915050565b6000600186141561208d57606085600a0160008673ffffffffffffffffffffffffffffffffffffffff1673ffffffffffffffffffffffffffffffffffffffff1681526020019081526020016000208054600181600116156101000203166002900480601f0160208091040260200160405190810160405280929190818152602001828054600181600116156101000203166002900480156120595780601f1061202e57610100808354040283529160200191612059565b820191906000526020600020905b81548152906001019060200180831161203c57829003601f168201915b505050505090506060849050808051906020012082805190602001201415612086576001925050506121b9565b50506121b4565b60008090508286600b0160008773ffffffffffffffffffffffffffffffffffffffff1673ffffffffffffffffffffffffffffffffffffffff1681526020019081526020016000205411156121365761212f8387600b0160008873ffffffffffffffffffffffffffffffffffffffff1673ffffffffffffffffffffffffffffffffffffffff16815260200190815260200160002054611ecc90919063ffffffff16565b905061218d565b61218a86600b0160008773ffffffffffffffffffffffffffffffffffffffff1673ffffffffffffffffffffffffffffffffffffffff1681526020019081526020016000205484611ecc90919063ffffffff16565b90505b6121a160c88461221990919063ffffffff16565b8110156121b25760019150506121b9565b505b600090505b95945050505050565b600080821415612207576040517f08c379a00000000000000000000000000000000000000000000000000000000081526004016121fe90613381565b60405180910390fd5b81838161221057fe5b06905092915050565b600080821161225d576040517f08c379a000000000000000000000000000000000000000000000000000000000815260040161225490613361565b60405180910390fd5b600082848161226857fe5b0490508091505092915050565b60008083141561228857600090506122df565b600082840290508284828161229957fe5b04146122da576040517f08c379a00000000000000000000000000000000000000000000000000000000081526004016122d1906133c1565b60405180910390fd5b809150505b92915050565b60008061231683602001516123086064866060015161227590919063ffffffff16565b61221990919063ffffffff16565b90506000612327846040015161246c565b9050601081111561233757601090505b600060016123656106406009612356868861227590919063ffffffff16565b0261221990919063ffffffff16565b019050809350505050919050565b600080620151809050806123948460a0015142611ecc90919063ffffffff16565b106123a05760006123a3565b60015b60ff16915050919050565b60608060606000809050600090505b858110156124065760405180604001604052808281526020016123df886124a4565b8152508382815181106123ee57fe5b602002602001018190525080806001019150506123bd565b612416836000600186510361250d565b600090505b848110156124605782818151811061242f57fe5b60200260200101516000015182828151811061244757fe5b602002602001018181525050808060010191505061241b565b81935050505092915050565b6000806001905060008090505b8184111561249a57600182901b9150612493816001611f22565b9050612479565b8092505050919050565b600081416040516020016124b891906131da565b6040516020818303038152906040528051906020012060001c444201016040516020016124e591906131f5565b6040516020818303038152906040528051906020012060001c8161250557fe5b069050919050565b6000829050600082905080821415612526575050612653565b60008560028686038161253557fe5b0586018151811061254257fe5b60200260200101516020015190505b818313612627575b8086848151811061256657fe5b6020026020010151602001511015612585578280600101935050612559565b5b85828151811061259257fe5b6020026020010151602001518110156125b357818060019003925050612586565b818313612622578582815181106125c657fe5b60200260200101518684815181106125da57fe5b60200260200101518785815181106125ee57fe5b6020026020010188858151811061260157fe5b60200260200101829052829052505082806001019350508180600190039250505b612551565b8185121561263b5761263a86868461250d565b5b8383121561264f5761264e86848661250d565b5b5050505b505050565b828054600181600116156101000203166002900490600052602060002090601f016020900481019282601f1061269957805160ff19168380011785556126c7565b828001600101855582156126c7579182015b828111156126c65782518255916020019190600101906126ab565b5b5090506126d491906127a7565b5090565b828054600181600116156101000203166002900490600052602060002090601f016020900481019282601f10612711578054855561274e565b8280016001018555821561274e57600052602060002091601f016020900482015b8281111561274d578254825591600101919060010190612732565b5b50905061275b91906127a7565b5090565b50805460018160011615610100020316600290046000825580601f1061278557506127a4565b601f0160209004906000526020600020908101906127a391906127a7565b5b50565b6127c991905b808211156127c55760008160009055506001016127ad565b5090565b90565b6000813590506127db81613765565b92915050565b600082601f8301126127f257600080fd5b8135612805612800826134f6565b6134c9565b9150818183526020840193506020810190508360005b8381101561284b578135860161283188826128be565b84526020840193506020830192505060018101905061281b565b5050505092915050565b6000815190506128648161377c565b92915050565b600082601f83011261287b57600080fd5b813561288e6128898261351e565b6134c9565b915080825260208301602083018583830111156128aa57600080fd5b6128b58382846136b0565b50505092915050565b6000606082840312156128d057600080fd5b6128da60606134c9565b9050600082013567ffffffffffffffff8111156128f657600080fd5b6129028482850161286a565b600083015250602082013567ffffffffffffffff81111561292257600080fd5b61292e8482850161286a565b60208301525060406129428482850161294e565b60408301525092915050565b60008135905061295d81613793565b92915050565b60008151905061297281613793565b92915050565b60006020828403121561298a57600080fd5b6000612998848285016127cc565b91505092915050565b6000602082840312156129b357600080fd5b60006129c184828501612855565b91505092915050565b600080604083850312156129dd57600080fd5b600083013567ffffffffffffffff8111156129f757600080fd5b612a038582860161286a565b925050602083013567ffffffffffffffff811115612a2057600080fd5b612a2c858286016127e1565b9150509250929050565b600060208284031215612a4857600080fd5b6000612a568482850161294e565b91505092915050565b600060208284031215612a7157600080fd5b6000612a7f84828501612963565b91505092915050565b600080600060608486031215612a9d57600080fd5b6000612aab8682870161294e565b935050602084013567ffffffffffffffff811115612ac857600080fd5b612ad48682870161286a565b9250506040612ae58682870161294e565b9150509250925092565b6000612afb83836130ec565b905092915050565b6000612b0f8383613143565b905092915050565b612b2081613656565b82525050565b612b37612b328261360e565b61370c565b82525050565b612b46816135fc565b82525050565b6000612b5782613584565b612b6181856135bf565b935083602082028501612b738561354a565b8060005b85811015612baf5784840389528151612b908582612aef565b9450612b9b836135a5565b925060208a01995050600181019050612b77565b50829750879550505050505092915050565b6000612bcc8261358f565b612bd681856135bf565b935083602082028501612be88561355a565b8060005b85811015612c2357848403895281612c048582612b03565b9450612c0f836135b2565b925060208a01995050600181019050612bec565b50829750879550505050505092915050565b612c3e81613668565b82525050565b6000612c4f8261359a565b612c5981856135d0565b9350612c698185602086016136bf565b612c728161373a565b840191505092915050565b6000612c888261359a565b612c9281856135e1565b9350612ca28185602086016136bf565b612cab8161373a565b840191505092915050565b600081546001811660008114612cd35760018114612cf957612d3d565b607f6002830416612ce481876135d0565b955060ff198316865260208601935050612d3d565b60028204612d0781876135d0565b9550612d128561356f565b60005b82811015612d3457815481890152600182019150602081019050612d15565b80880195505050505b505092915050565b600081546001811660008114612d625760018114612d8857612dcc565b607f6002830416612d7381876135e1565b955060ff198316865260208601935050612dcc565b60028204612d9681876135e1565b9550612da18561356f565b60005b82811015612dc357815481890152600182019150602081019050612da4565b80880195505050505b505092915050565b6000612de16021836135e1565b91507f54686973207265717565737420697320616c7265616479207265736f6c76656460008301527f2e000000000000000000000000000000000000000000000000000000000000006020830152604082019050919050565b6000612e476017836135e1565b91507f596f757220616e7377657220697320657870697265642e0000000000000000006000830152602082019050919050565b6000612e87601b836135e1565b91507f536166654d6174683a206164646974696f6e206f766572666c6f7700000000006000830152602082019050919050565b6000612ec7601e836135e1565b91507f536166654d6174683a207375627472616374696f6e206f766572666c6f7700006000830152602082019050919050565b6000612f07601e836135e1565b91507f546865206f7261636c6520697320616c726561647920657869737465642e00006000830152602082019050919050565b6000612f47601a836135e1565b91507f536166654d6174683a206469766973696f6e206279207a65726f0000000000006000830152602082019050919050565b6000612f876018836135e1565b91507f536166654d6174683a206d6f64756c6f206279207a65726f00000000000000006000830152602082019050919050565b6000612fc76032836135e1565b91507f596f7520686176656e277420676f7420656e6f75676820746f6b656e7320666f60008301527f72207472616e73616374696f6e206665652e00000000000000000000000000006020830152604082019050919050565b600061302d6021836135e1565b91507f536166654d6174683a206d756c7469706c69636174696f6e206f766572666c6f60008301527f77000000000000000000000000000000000000000000000000000000000000006020830152604082019050919050565b60006130936029836135e1565b91507f546865206d6178696d756d206c696d6974206f66204f7261636c65732069732060008301527f65786365656465642e00000000000000000000000000000000000000000000006020830152604082019050919050565b600060608301600083015184820360008601526131098282612c44565b915050602083015184820360208601526131238282612c44565b915050604083015161313860408601826131a5565b508091505092915050565b600060608301600080840185830360008701526131608382612cb6565b9250506001840185830360208701526131798382612cb6565b9250506002840154905061318c816136f2565b61319960408701826131a5565b50819250505092915050565b6131ae8161364c565b82525050565b6131bd8161364c565b82525050565b6131d46131cf8261364c565b613730565b82525050565b60006131e68284612b26565b60148201915081905092915050565b600061320182846131c3565b60208201915081905092915050565b60006020820190506132256000830184612b3d565b92915050565b60006020820190506132406000830184612b17565b92915050565b600060608201905061325b6000830186612b3d565b6132686020830185612b3d565b61327560408301846131b4565b949350505050565b60006040820190506132926000830185612b3d565b61329f60208301846131b4565b9392505050565b60006020820190506132bb6000830184612c35565b92915050565b600060208201905081810360008301526132da81612dd4565b9050919050565b600060208201905081810360008301526132fa81612e3a565b9050919050565b6000602082019050818103600083015261331a81612e7a565b9050919050565b6000602082019050818103600083015261333a81612eba565b9050919050565b6000602082019050818103600083015261335a81612efa565b9050919050565b6000602082019050818103600083015261337a81612f3a565b9050919050565b6000602082019050818103600083015261339a81612f7a565b9050919050565b600060208201905081810360008301526133ba81612fba565b9050919050565b600060208201905081810360008301526133da81613020565b9050919050565b600060208201905081810360008301526133fa81613086565b9050919050565b600060208201905061341660008301846131b4565b92915050565b600060608201905061343160008301866131b4565b81810360208301526134438185612c7d565b905081810360408301526134578184612b4c565b9050949350505050565b600060a08201905061347660008301886131b4565b81810360208301526134888187612d45565b9050818103604083015261349c8186612bc1565b905081810360608301526134b08185612c7d565b90506134bf60808301846131b4565b9695505050505050565b6000604051905081810181811067ffffffffffffffff821117156134ec57600080fd5b8060405250919050565b600067ffffffffffffffff82111561350d57600080fd5b602082029050602081019050919050565b600067ffffffffffffffff82111561353557600080fd5b601f19601f8301169050602081019050919050565b6000819050602082019050919050565b60008190508160005260206000209050919050565b60008190508160005260206000209050919050565b600081519050919050565b600081549050919050565b600081519050919050565b6000602082019050919050565b6000600382019050919050565b600082825260208201905092915050565b600082825260208201905092915050565b600082825260208201905092915050565b6000819050919050565b60006136078261362c565b9050919050565b60006136198261362c565b9050919050565b60008115159050919050565b600073ffffffffffffffffffffffffffffffffffffffff82169050919050565b6000819050919050565b60006136618261368c565b9050919050565b60006136738261367a565b9050919050565b60006136858261362c565b9050919050565b60006136978261369e565b9050919050565b60006136a98261362c565b9050919050565b82818337600083830152505050565b60005b838110156136dd5780820151818401526020810190506136c2565b838111156136ec576000848401525b50505050565b600061370561370083613758565b6135f2565b9050919050565b60006137178261371e565b9050919050565b60006137298261374b565b9050919050565b6000819050919050565b6000601f19601f8301169050919050565b60008160601b9050919050565b60008160001c9050919050565b61376e816135fc565b811461377957600080fd5b50565b61378581613620565b811461379057600080fd5b50565b61379c8161364c565b81146137a757600080fd5b5056fea2646970667358221220982f66d3cb10a9fa54ee769866f66b4282cb04a15b48673ca4c5b7570578b83d64736f6c63430006060033",
  "immutableReferences": {},
  "source": "// pragma solidity >=0.4.21 <0.6.0;\r\npragma solidity >=0.6.6;\r\npragma experimental ABIEncoderV2;\r\n\r\nimport \"./interfaces/OracleInterface.sol\";\r\nimport \"./interfaces/IDEOR.sol\";\r\nimport \"./library/Selection.sol\";\r\nimport \"./library/SafeMathDEOR.sol\";\r\nimport \"./library/Ownable.sol\";\r\n\r\ncontract Reputation {\r\n    using SafeMathDEOR for uint256;\r\n\r\n    struct reputation {\r\n        address addr;\r\n        uint256 totalAssignedRequest;        //total number of past requests that an oracle has agreed to, both fulfilled and unfulfileed\r\n        uint256 totalCompletedRequest;       //total number of past requests that an oracle has fulfileed\r\n        uint256 totalAcceptedRequest;        //total number of requests that have been accepted\r\n        uint256 totalResponseTime;           //total seconds of response time\r\n        uint256 lastActiveTime;              //last active time of the oracle as second\r\n        uint256 score;                       //reputation score\r\n        uint256 penalty;                     //amount of penalty payment\r\n        uint256 totalEarned;                 //total earned\r\n    }\r\n\r\n    function calculateScore(reputation memory self) internal pure returns (uint256) {\r\n        uint256 x = (self.totalAcceptedRequest.mul(100)).div(self.totalAssignedRequest);\r\n        uint256 b = self.totalCompletedRequest.log_2();\r\n        if (b > 16) {\r\n            b = 16;\r\n        }\r\n        uint256 res = (x.mul(b) * 9).div(1600) + 1;\r\n        return res;\r\n    }\r\n\r\n    function activityValidate(reputation memory self) internal view returns (uint256) {\r\n        uint256 ACTIVE_EXPIRY_TIME = 1 days;\r\n        return now.sub(self.lastActiveTime) < ACTIVE_EXPIRY_TIME ? 1 : 0;\r\n    }\r\n}\r\n\r\ncontract Oracle is Ownable, OracleInterface, Reputation, Selection {\r\n  using SafeMathDEOR for uint256;\r\n\r\n  IDEOR public token;\r\n\r\n  Request[] private requests; //  list of requests made to the contract\r\n  uint256 private currentId = 1; // increasing request id\r\n  uint256 private totalOracleCount = 2000; // Hardcoded oracle count\r\n  mapping(address => reputation) private oracles;        // Reputation of oracles\r\n  address[] private oracleAddresses;      // Saved active oracle addresses\r\n  uint256 constant private maxResolvedCount = 1000;\r\n  uint256[] private resolvedRequest = new uint256[](maxResolvedCount);\r\n  uint256 cursorResolvedRequest = 0;\r\n  uint256 constant public EXPIRY_TIME = 3 minutes;\r\n  uint256 private requestFee = 10**18;   // request fee\r\n  string constant private TYPE_DATAQUERY = \"DataQuery\";\r\n  string constant private TYPE_PRICEFEED = \"PriceFeed\";\r\n\r\n  // defines a general api request\r\n  struct Request {\r\n    uint256 id;                            //request id\r\n    string requestType;                  //Request Type: \"PriceFeed\" or \"DataQuery\"\r\n    string agreedValue;                 //value from key\r\n    uint256 timestamp;                     //Request Timestamp\r\n    uint256 minQuorum;                     //minimum number of responses to receive before declaring final result\r\n    uint256 fee;                            //transaction fee\r\n    uint256 selectedOracleCount;                //selected oracle count\r\n    uint256 agreedPrice;                     //price from key\r\n    uint256 paramsCount;\r\n    mapping (uint256 => RequestParam) params;\r\n    mapping(address => string) anwers;     //answers provided by the oracles\r\n    mapping(address => uint256) priceAnswers;     //answers provided by the oracles\r\n    mapping(address => uint256) quorum;    //oracles which will query the answer (1=oracle hasn't voted, 2=oracle has voted)\r\n  }\r\n\r\n  constructor(address tokenAddress) public {\r\n    token = IDEOR(tokenAddress);\r\n    requests.push(Request(0, \"\", \"\", 0, 0, 0, 0, 0, 0));\r\n  }\r\n\r\n  function newOracle () public override(OracleInterface)\r\n  {\r\n    uint256 oracleCount = oracleAddresses.length;\r\n    address sender = msg.sender;\r\n    require(oracleCount < totalOracleCount, \"The maximum limit of Oracles is exceeded.\");\r\n    require(oracles[sender].addr == address(0), \"The oracle is already existed.\");\r\n\r\n    oracles[sender].addr = sender;\r\n    oracles[sender].totalAssignedRequest = 0;\r\n    oracles[sender].totalCompletedRequest = 0;\r\n    oracles[sender].totalAcceptedRequest = 0;\r\n    oracles[sender].totalResponseTime = 0;\r\n    oracles[sender].lastActiveTime = now;\r\n    oracles[sender].score = 1;\r\n    oracles[sender].penalty = requestFee;\r\n    oracles[sender].totalEarned = 0;\r\n    oracleAddresses.push(sender);\r\n  }\r\n\r\n  function removeOracleByAddress (address addr) internal onlyOwner\r\n  {\r\n    uint256 oracleCount = oracleAddresses.length;\r\n\r\n    for (uint256 i = 0; i < oracleCount ; i ++) {\r\n      if (oracleAddresses[i] == addr) {\r\n        oracleAddresses[i] = oracleAddresses[oracleCount - 1];\r\n        delete oracleAddresses[oracleCount - 1];\r\n        oracleAddresses.pop();\r\n\r\n        oracles[addr].addr = address(0);      // Reset reputation of oracle to zero\r\n        break;\r\n      }\r\n    }\r\n  }\r\n\r\n  function createRequest (\r\n    string memory _requestType,\r\n    RequestParam[] memory _params\r\n  )\r\n  public override(OracleInterface)\r\n  {\r\n    require(token.balanceOf(msg.sender) >= requestFee, \"You haven't got enough tokens for transaction fee.\");\r\n    string memory requestType = _requestType;\r\n\r\n    //Validate all oracles' acitivity\r\n    uint i = 0;\r\n    while (i < oracleAddresses.length) {\r\n      address cursorAddress = oracleAddresses[i];\r\n      uint256 tokenBalance = token.balanceOf(cursorAddress);\r\n\r\n      if (tokenBalance < oracles[cursorAddress].penalty || activityValidate(oracles[cursorAddress]) == 0) {\r\n        //Remove invalide oracle\r\n        oracleAddresses[i] = oracleAddresses[oracleAddresses.length - 1];\r\n        delete oracleAddresses[oracleAddresses.length - 1];\r\n        oracleAddresses.pop();\r\n\r\n        oracles[cursorAddress].addr = address(0);      // Reset reputation of oracle to zero\r\n        i --;\r\n      }\r\n      i ++;\r\n    }\r\n\r\n    uint256 oracleCount = oracleAddresses.length;\r\n    uint selectedOracleCount = oracleCount.mul(2).div(3);\r\n\r\n    requests.push(Request(currentId, requestType, \"\", now, 0, requestFee, selectedOracleCount, 0, _params.length));\r\n    uint256 length = requests.length;\r\n    Request storage r = requests[length-1];\r\n\r\n    for (i = 0 ; i < _params.length ; i ++) {\r\n      r.params[i] = _params[i];\r\n    }\r\n\r\n    uint256[] memory selectedOracles = getSelectedOracles(oracleCount, selectedOracleCount);\r\n    uint256 scoreSum = 0;\r\n    uint256 penaltyForRequest = requestFee.div(selectedOracleCount);\r\n\r\n    for (i = 0; i < selectedOracles.length ; i ++) {\r\n      address selOracle = oracleAddresses[selectedOracles[i]];\r\n      r.quorum[selOracle] = 1;\r\n      scoreSum = scoreSum.add(oracles[selOracle].score);\r\n      oracles[selOracle].totalAssignedRequest ++;\r\n      oracles[selOracle].penalty = penaltyForRequest;\r\n      token.transferFrom(selOracle, owner, penaltyForRequest);\r\n    }\r\n    r.minQuorum = scoreSum.mul(2).div(3);          //minimum number of responses to receive before declaring final result(2/3 of total)\r\n\r\n    token.transfer(owner, requestFee);\r\n\r\n    // launch an event to be detected by oracle outside of blockchain\r\n    emit NewRequest (\r\n      currentId,\r\n      requestType,\r\n      _params\r\n    );\r\n\r\n    // increase request id\r\n    currentId++;\r\n  }\r\n\r\n  //delete peding request\r\n  function deleteRequest (uint256 _id) public override(OracleInterface) {\r\n    delete requests[_id];\r\n    emit DeletedRequest(_id);\r\n  }\r\n\r\n  function checkRetrievedValue (uint256 isDataQuery, Request storage currRequest, address oracleAddress, string memory _valueRetrieved, uint256 _priceRetrieved) \r\n    internal view returns (uint256)\r\n  {\r\n    if (isDataQuery == 1) {\r\n      bytes memory a = bytes(currRequest.anwers[oracleAddress]);\r\n      bytes memory b = bytes(_valueRetrieved);\r\n\r\n      if(keccak256(a) == keccak256(b)) {\r\n        return 1;\r\n      }\r\n    }\r\n    else {\r\n      uint256 diff = 0;\r\n      if (currRequest.priceAnswers[oracleAddress] > _priceRetrieved) {\r\n        diff = currRequest.priceAnswers[oracleAddress].sub(_priceRetrieved);\r\n      }\r\n      else {\r\n        diff = _priceRetrieved.sub(currRequest.priceAnswers[oracleAddress]);\r\n      }\r\n      if (diff < _priceRetrieved.div(200)) {\r\n        return 1;\r\n      }\r\n    }\r\n    return 0;\r\n  }\r\n\r\n  //called by the oracle to record its answer\r\n  function updateRequest (\r\n    uint256 _id,\r\n    string memory _valueRetrieved,\r\n    uint256 _priceRetrieved\r\n  ) public override(OracleInterface) {\r\n\r\n    for (uint256 i = 0 ; i < maxResolvedCount ; i ++) {\r\n      require(resolvedRequest[i] != _id, \"This request is already resolved.\");\r\n    }\r\n\r\n    Request storage currRequest = requests[_id];\r\n    string memory vlRetrieved = _valueRetrieved;\r\n    uint256 prRetrieved = _priceRetrieved;\r\n\r\n    uint256 responseTime = now.sub(currRequest.timestamp);\r\n    require(responseTime < EXPIRY_TIME, \"Your answer is expired.\");\r\n\r\n    //update last active time\r\n    oracles[address(msg.sender)].lastActiveTime = now;\r\n\r\n    uint256 oracleCount = oracleAddresses.length;\r\n\r\n    //check if oracle is in the list of trusted oracles\r\n    //and if the oracle hasn't voted yet\r\n    if(currRequest.quorum[address(msg.sender)] == 1){\r\n\r\n      bytes memory t1 = bytes(currRequest.requestType);\r\n      bytes memory t2 = bytes(TYPE_DATAQUERY);\r\n      uint256 isDataQuery = 0;\r\n      if (keccak256(t1) == keccak256(t2)) {\r\n        isDataQuery = 1;\r\n      }\r\n\r\n      oracles[address(msg.sender)].totalCompletedRequest ++;\r\n      oracles[address(msg.sender)].totalResponseTime = oracles[address(msg.sender)].totalResponseTime.add(responseTime);\r\n\r\n      //marking that this address has voted\r\n      currRequest.quorum[msg.sender] = 2;\r\n\r\n      //save the retrieved value\r\n      if (isDataQuery == 1) {\r\n        currRequest.anwers[address(msg.sender)] = _valueRetrieved;\r\n      }\r\n      else {\r\n        currRequest.priceAnswers[address(msg.sender)] = _priceRetrieved;\r\n      }\r\n\r\n      uint256 currentQuorum = 0;\r\n\r\n      //iterate through oracle list and check if enough oracles(minimum quorum)\r\n      //have voted the same answer has the current one\r\n      for(uint256 i = 0; i < oracleCount; i++){\r\n        if (checkRetrievedValue(isDataQuery, currRequest, oracleAddresses[i], vlRetrieved, prRetrieved) == 1) {\r\n          currentQuorum = currentQuorum.add(oracles[oracleAddresses[i]].score);\r\n        }\r\n      }\r\n\r\n      //request Resolved\r\n      if(currentQuorum >= currRequest.minQuorum){\r\n\r\n        resolvedRequest[cursorResolvedRequest] = currRequest.id;\r\n        cursorResolvedRequest = (cursorResolvedRequest + 1).mod(maxResolvedCount);\r\n        uint256 penaltyForRequest = currRequest.fee.div(currRequest.selectedOracleCount);\r\n\r\n        for(uint256 i = 0; i < oracleCount; i++){\r\n\r\n          if (checkRetrievedValue(isDataQuery, currRequest, oracleAddresses[i], vlRetrieved, prRetrieved) == 1) {\r\n            uint256 awardForRequest = currRequest.fee.div(currentQuorum).mul(oracles[oracleAddresses[i]].score);\r\n            oracles[oracleAddresses[i]].totalAcceptedRequest ++;\r\n            oracles[oracleAddresses[i]].totalEarned = oracles[oracleAddresses[i]].totalEarned.add(awardForRequest);\r\n            token.transferFrom(owner, oracleAddresses[i], awardForRequest + penaltyForRequest);\r\n          }\r\n\r\n          // update the reputation score of the oracle\r\n          oracles[oracleAddresses[i]].score = calculateScore(oracles[oracleAddresses[i]]);\r\n        }\r\n\r\n        currRequest.agreedValue = vlRetrieved;\r\n        currRequest.agreedPrice = prRetrieved;\r\n\r\n        RequestParam[] storage params;\r\n        for (uint256 i = 0 ; i < currRequest.paramsCount ; i ++) {\r\n          params.push(currRequest.params[i]);\r\n        }\r\n\r\n        emit UpdatedRequest (\r\n          currRequest.id,\r\n          currRequest.requestType,\r\n          params,\r\n          vlRetrieved,\r\n          prRetrieved\r\n        );\r\n      }\r\n    }\r\n  }\r\n}\r\n",
  "sourcePath": "F:/my-current-project/20210106_DEOR/DecentralizedOracle/on-chain-oracle/contracts/Oracle.sol",
  "compiler": {
    "name": "solc",
    "version": "0.6.6+commit.6c089d02.Emscripten.clang"
  },
  "schemaVersion": "3.3.3",
  "updatedAt": "2021-02-03T09:00:30.475Z",
  "networkType": "ethereum",
  "devdoc": {
    "methods": {
      "transferOwnership(address)": {
        "details": "Allows the current owner to transfer control of the contract to a newOwner.",
        "params": {
          "newOwner": "The address to transfer ownership to."
        }
      }
    }
  },
  "userdoc": {
    "methods": {}
  }
}