{
  "contractName": "Oracle",
  "abi": [
    {
      "anonymous": false,
      "inputs": [
        {
          "indexed": false,
          "internalType": "uint256",
          "name": "id",
          "type": "uint256"
        },
        {
          "indexed": false,
          "internalType": "string",
          "name": "urlToQuery",
          "type": "string"
        },
        {
          "indexed": false,
          "internalType": "string",
          "name": "attributeToFetch",
          "type": "string"
        }
      ],
      "name": "NewRequest",
      "type": "event"
    },
    {
      "anonymous": false,
      "inputs": [
        {
          "indexed": false,
          "internalType": "uint256",
          "name": "id",
          "type": "uint256"
        },
        {
          "indexed": false,
          "internalType": "string",
          "name": "urlToQuery",
          "type": "string"
        },
        {
          "indexed": false,
          "internalType": "string",
          "name": "attributeToFetch",
          "type": "string"
        },
        {
          "indexed": false,
          "internalType": "string",
          "name": "agreedValue",
          "type": "string"
        }
      ],
      "name": "UpdatedRequest",
      "type": "event"
    },
    {
      "constant": true,
      "inputs": [],
      "name": "randomizer",
      "outputs": [
        {
          "internalType": "contract Randomizer",
          "name": "",
          "type": "address"
        }
      ],
      "payable": false,
      "stateMutability": "view",
      "type": "function"
    },
    {
      "constant": false,
      "inputs": [],
      "name": "getReputationStatus",
      "outputs": [
        {
          "internalType": "uint256",
          "name": "totalAssignedRequest",
          "type": "uint256"
        },
        {
          "internalType": "uint256",
          "name": "totalCompletedRequest",
          "type": "uint256"
        },
        {
          "internalType": "uint256",
          "name": "totalAcceptedRequest",
          "type": "uint256"
        },
        {
          "internalType": "uint256",
          "name": "amountPenalty",
          "type": "uint256"
        }
      ],
      "payable": false,
      "stateMutability": "nonpayable",
      "type": "function"
    },
    {
      "constant": false,
      "inputs": [],
      "name": "newOracle",
      "outputs": [],
      "payable": false,
      "stateMutability": "nonpayable",
      "type": "function"
    },
    {
      "constant": false,
      "inputs": [
        {
          "internalType": "string",
          "name": "_urlToQuery",
          "type": "string"
        },
        {
          "internalType": "string",
          "name": "_attributeToFetch",
          "type": "string"
        }
      ],
      "name": "createRequest",
      "outputs": [],
      "payable": false,
      "stateMutability": "nonpayable",
      "type": "function"
    },
    {
      "constant": false,
      "inputs": [
        {
          "internalType": "uint256",
          "name": "_id",
          "type": "uint256"
        },
        {
          "internalType": "string",
          "name": "_valueRetrieved",
          "type": "string"
        }
      ],
      "name": "updateRequest",
      "outputs": [],
      "payable": false,
      "stateMutability": "nonpayable",
      "type": "function"
    }
  ],
  "bytecode": "0x608060405260006002556002600355600360045534801561001f57600080fd5b50610ef08061002f6000396000f3fe608060405234801561001057600080fd5b50600436106100575760003560e01c8063c3d3af671461005c578063cfb0ac991461008f578063d9ddf7ab14610154578063df89f8191461015e578063f10fb584146102b0575b600080fd5b6100646102fa565b6040518085815260200184815260200183815260200182815260200194505050505060405180910390f35b610152600480360360408110156100a557600080fd5b8101908080359060200190929190803590602001906401000000008111156100cc57600080fd5b8201836020820111156100de57600080fd5b8035906020019184600183028401116401000000008311171561010057600080fd5b91908080601f016020809104026020016040519081016040528093929190818152602001838380828437600081840152601f19601f820116905080830192505050505050509192919290505050610366565b005b61015c61079d565b005b6102ae6004803603604081101561017457600080fd5b810190808035906020019064010000000081111561019157600080fd5b8201836020820111156101a357600080fd5b803590602001918460018302840111640100000000831117156101c557600080fd5b91908080601f016020809104026020016040519081016040528093929190818152602001838380828437600081840152601f19601f8201169050808301925050505050505091929192908035906020019064010000000081111561022857600080fd5b82018360208201111561023a57600080fd5b8035906020019184600183028401116401000000008311171561025c57600080fd5b91908080601f016020809104026020016040519081016040528093929190818152602001838380828437600081840152601f19601f820116905080830192505050505050509192919290505050610a43565b005b6102b8610d71565b604051808273ffffffffffffffffffffffffffffffffffffffff1673ffffffffffffffffffffffffffffffffffffffff16815260200191505060405180910390f35b6000806000806000600560003373ffffffffffffffffffffffffffffffffffffffff1673ffffffffffffffffffffffffffffffffffffffff1681526020019081526020016000209050806001015481600201548260030154836004015494509450945094505090919293565b60006001838154811061037557fe5b9060005260206000209060060201905060018160050160003373ffffffffffffffffffffffffffffffffffffffff1673ffffffffffffffffffffffffffffffffffffffff1681526020019081526020016000205414156107985760028160050160003373ffffffffffffffffffffffffffffffffffffffff1673ffffffffffffffffffffffffffffffffffffffff16815260200190815260200160002081905550600080905060008090505b8061049457600083600401600084815260200190815260200160002080546001816001161561010002031660029004905014156104875760019050838360040160008481526020019081526020016000209080519060200190610485929190610d96565b505b8180600101925050610421565b600080905060008090505b6004548110156107935760608560040160008381526020019081526020016000208054600181600116156101000203166002900480601f0160208091040260200160405190810160405280929190818152602001828054600181600116156101000203166002900480156105545780601f1061052957610100808354040283529160200191610554565b820191906000526020600020905b81548152906001019060200180831161053757829003601f168201915b5050505050905060608790508080519060200120828051906020012014156107845783806001019450506003548410610783578787600301908051906020019061059f929190610d96565b507f51f1e1f00d186e79f8ea7c82be079fcdd49fe881904a9cdc1903345eb69d3831876000015488600101896002018a600301604051808581526020018060200180602001806020018481038452878181546001816001161561010002031660029004815260200191508054600181600116156101000203166002900480156106695780601f1061063e57610100808354040283529160200191610669565b820191906000526020600020905b81548152906001019060200180831161064c57829003601f168201915b50508481038352868181546001816001161561010002031660029004815260200191508054600181600116156101000203166002900480156106ec5780601f106106c1576101008083540402835291602001916106ec565b820191906000526020600020905b8154815290600101906020018083116106cf57829003601f168201915b505084810382528581815460018160011615610100020316600290048152602001915080546001816001161561010002031660029004801561076f5780601f106107445761010080835404028352916020019161076f565b820191906000526020600020905b81548152906001019060200180831161075257829003601f168201915b505097505050505050505060405180910390a15b5b5050808060010191505061049f565b505050505b505050565b6000339050600073ffffffffffffffffffffffffffffffffffffffff16600560008373ffffffffffffffffffffffffffffffffffffffff1673ffffffffffffffffffffffffffffffffffffffff16815260200190815260200160002060000160009054906101000a900473ffffffffffffffffffffffffffffffffffffffff1673ffffffffffffffffffffffffffffffffffffffff1614610a405780600560008373ffffffffffffffffffffffffffffffffffffffff1673ffffffffffffffffffffffffffffffffffffffff16815260200190815260200160002060000160006101000a81548173ffffffffffffffffffffffffffffffffffffffff021916908373ffffffffffffffffffffffffffffffffffffffff1602179055506000600560008373ffffffffffffffffffffffffffffffffffffffff1673ffffffffffffffffffffffffffffffffffffffff168152602001908152602001600020600101819055506000600560008373ffffffffffffffffffffffffffffffffffffffff1673ffffffffffffffffffffffffffffffffffffffff168152602001908152602001600020600201819055506000600560008373ffffffffffffffffffffffffffffffffffffffff1673ffffffffffffffffffffffffffffffffffffffff168152602001908152602001600020600301819055506000600560008373ffffffffffffffffffffffffffffffffffffffff1673ffffffffffffffffffffffffffffffffffffffff1681526020019081526020016000206004018190555060068190806001815401808255809150509060018203906000526020600020016000909192909190916101000a81548173ffffffffffffffffffffffffffffffffffffffff021916908373ffffffffffffffffffffffffffffffffffffffff160217905550505b50565b60006001604051806080016040528060025481526020018581526020018481526020016040518060200160405280600081525081525090806001815401808255809150509060018203906000526020600020906006020160009091929091909150600082015181600001556020820151816001019080519060200190610aca929190610e16565b506040820151816002019080519060200190610ae7929190610e16565b506060820151816003019080519060200190610b04929190610e16565b50505090506000600180830381548110610b1a57fe5b90600052602060002090600602019050600060068054905090506001826005016000736c2339b46f41a06f09ca0051ddad54d1e582ba7773ffffffffffffffffffffffffffffffffffffffff1673ffffffffffffffffffffffffffffffffffffffff16815260200190815260200160002081905550600182600501600073b5346cf224c02186606e5f89eacc21ec2539807773ffffffffffffffffffffffffffffffffffffffff1673ffffffffffffffffffffffffffffffffffffffff16815260200190815260200160002081905550600182600501600073a2997f1ca363d11a0a35bb1ac0ff7849bc13e91473ffffffffffffffffffffffffffffffffffffffff1673ffffffffffffffffffffffffffffffffffffffff168152602001908152602001600020819055507f0312239616abfb14f7ffa065155abb0ca047274d86c965890db4c8a48b8ce4b66002548686604051808481526020018060200180602001838103835285818151815260200191508051906020019080838360005b83811015610cb5578082015181840152602081019050610c9a565b50505050905090810190601f168015610ce25780820380516001836020036101000a031916815260200191505b50838103825284818151815260200191508051906020019080838360005b83811015610d1b578082015181840152602081019050610d00565b50505050905090810190601f168015610d485780820380516001836020036101000a031916815260200191505b509550505050505060405180910390a16002600081548092919060010191905055505050505050565b6000809054906101000a900473ffffffffffffffffffffffffffffffffffffffff1681565b828054600181600116156101000203166002900490600052602060002090601f016020900481019282601f10610dd757805160ff1916838001178555610e05565b82800160010185558215610e05579182015b82811115610e04578251825591602001919060010190610de9565b5b509050610e129190610e96565b5090565b828054600181600116156101000203166002900490600052602060002090601f016020900481019282601f10610e5757805160ff1916838001178555610e85565b82800160010185558215610e85579182015b82811115610e84578251825591602001919060010190610e69565b5b509050610e929190610e96565b5090565b610eb891905b80821115610eb4576000816000905550600101610e9c565b5090565b9056fea265627a7a723158203efc13299fd53c6f1405d30103cec25ed4961775858809dd8d4460a604300b0664736f6c63430005100032",
  "source": "pragma solidity >=0.4.21 <0.6.0;\n\nimport \"./Randomizer.sol\";\n\ncontract Oracle {\n  Randomizer public randomizer;\n  Request[] requests; //list of requests made to the contract\n  uint currentId = 0; //increasing request id\n  uint minQuorum = 2; //minimum number of responses to receive before declaring final result\n  uint totalOracleCount = 3; // Hardcoded oracle count\n  mapping(address => Reputation) oracles;\n  address[] oracleAddresses;\n\n  // defines a general api request\n  struct Request {\n    uint id;                            //request id\n    string urlToQuery;                  //API url\n    string attributeToFetch;            //json attribute (key) to retrieve in the response\n    string agreedValue;                 //value from key\n    mapping(uint => string) anwers;     //answers provided by the oracles\n    mapping(address => uint) quorum;    //oracles which will query the answer (1=oracle hasn't voted, 2=oracle has voted)\n  }\n\n  struct Reputation {\n    address addr;\n    uint totalAssignedRequest;        //total number of past requests that an oracle has agreed to, both fulfilled and unfulfileed\n    uint totalCompletedRequest;       //total number of past requests that an oracle has fulfileed\n    uint totalAcceptedRequest;        //total number of requests that have been accepted\n    uint amountPenalty;               //amount of penalty payments\n  }\n\n  //event that triggers oracle outside of the blockchain\n  event NewRequest (\n    uint id,\n    string urlToQuery,\n    string attributeToFetch\n  );\n\n  //triggered when there's a consensus on the final result\n  event UpdatedRequest (\n    uint id,\n    string urlToQuery,\n    string attributeToFetch,\n    string agreedValue\n  );\n\n  function getReputationStatus () public returns (uint totalAssignedRequest, uint totalCompletedRequest, uint totalAcceptedRequest, uint amountPenalty)\n  {\n    Reputation storage datum = oracles[msg.sender];\n    return (datum.totalAssignedRequest, datum.totalCompletedRequest, datum.totalAcceptedRequest, datum.amountPenalty);\n  }\n\n  function newOracle () public\n  {\n    address sender = msg.sender;\n    if (oracles[sender].addr != address(0)) {\n      oracles[sender].addr = sender;\n      oracles[sender].totalAssignedRequest = 0;\n      oracles[sender].totalCompletedRequest = 0;\n      oracles[sender].totalAcceptedRequest = 0;\n      oracles[sender].amountPenalty = 0;\n      oracleAddresses.push(sender);\n    }\n  }\n\n  function createRequest (\n    string memory _urlToQuery,\n    string memory _attributeToFetch\n  )\n  public\n  {\n    uint length = requests.push(Request(currentId, _urlToQuery, _attributeToFetch, \"\"));\n    Request storage r = requests[length-1];\n\n    uint oracleCount = oracleAddresses.length;\n\n    // Hardcoded oracles address\n    r.quorum[address(0x6c2339b46F41a06f09CA0051ddAD54D1e582bA77)] = 1;\n    r.quorum[address(0xb5346CF224c02186606e5f89EACC21eC25398077)] = 1;\n    r.quorum[address(0xa2997F1CA363D11a0a35bB1Ac0Ff7849bc13e914)] = 1;\n\n    // launch an event to be detected by oracle outside of blockchain\n    emit NewRequest (\n      currentId,\n      _urlToQuery,\n      _attributeToFetch\n    );\n\n    // increase request id\n    currentId++;\n  }\n\n  //called by the oracle to record its answer\n  function updateRequest (\n    uint _id,\n    string memory _valueRetrieved\n  ) public {\n\n    Request storage currRequest = requests[_id];\n\n    //check if oracle is in the list of trusted oracles\n    //and if the oracle hasn't voted yet\n    if(currRequest.quorum[address(msg.sender)] == 1){\n\n      //marking that this address has voted\n      currRequest.quorum[msg.sender] = 2;\n\n      //iterate through \"array\" of answers until a position if free and save the retrieved value\n      uint tmpI = 0;\n      bool found = false;\n      while(!found) {\n        //find first empty slot\n        if(bytes(currRequest.anwers[tmpI]).length == 0){\n          found = true;\n          currRequest.anwers[tmpI] = _valueRetrieved;\n        }\n        tmpI++;\n      }\n\n      uint currentQuorum = 0;\n\n      //iterate through oracle list and check if enough oracles(minimum quorum)\n      //have voted the same answer has the current one\n      for(uint i = 0; i < totalOracleCount; i++){\n        bytes memory a = bytes(currRequest.anwers[i]);\n        bytes memory b = bytes(_valueRetrieved);\n\n        if(keccak256(a) == keccak256(b)){\n          currentQuorum++;\n          if(currentQuorum >= minQuorum){\n            currRequest.agreedValue = _valueRetrieved;\n            emit UpdatedRequest (\n              currRequest.id,\n              currRequest.urlToQuery,\n              currRequest.attributeToFetch,\n              currRequest.agreedValue\n            );\n          }\n        }\n      }\n    }\n  }\n}\n",
  "sourcePath": "/home/osboxes/Documents/Doracle/DecentralizedOracle/on-chain-oracle/contracts/Oracle.sol",
  "compiler": {
    "name": "solc",
    "version": "0.5.16+commit.9c3226ce.Emscripten.clang"
  },
  "schemaVersion": "3.3.3",
  "updatedAt": "2021-01-15T14:05:44.080Z",
  "devdoc": {
    "methods": {}
  },
  "userdoc": {
    "methods": {}
  }
}