{
  "contractName": "Randomizer",
  "abi": [
    {
      "constant": true,
      "inputs": [
        {
          "internalType": "uint256",
          "name": "gamerange",
          "type": "uint256"
        },
        {
          "internalType": "uint256",
          "name": "seed",
          "type": "uint256"
        }
      ],
      "name": "getRandom",
      "outputs": [
        {
          "internalType": "uint256",
          "name": "",
          "type": "uint256"
        }
      ],
      "payable": false,
      "stateMutability": "view",
      "type": "function"
    },
    {
      "constant": true,
      "inputs": [],
      "name": "getRandom",
      "outputs": [
        {
          "internalType": "uint256",
          "name": "",
          "type": "uint256"
        }
      ],
      "payable": false,
      "stateMutability": "view",
      "type": "function"
    },
    {
      "constant": true,
      "inputs": [
        {
          "internalType": "uint256",
          "name": "gamerange",
          "type": "uint256"
        }
      ],
      "name": "getRandom",
      "outputs": [
        {
          "internalType": "uint256",
          "name": "",
          "type": "uint256"
        }
      ],
      "payable": false,
      "stateMutability": "view",
      "type": "function"
    }
  ],
  "bytecode": "0x608060405234801561001057600080fd5b506102e7806100206000396000f3fe608060405234801561001057600080fd5b50600436106100415760003560e01c8063655b08eb14610046578063aacc5a1714610092578063cd4b6914146100b0575b600080fd5b61007c6004803603604081101561005c57600080fd5b8101908080359060200190929190803590602001909291905050506100f2565b6040518082815260200191505060405180910390f35b61009a61018d565b6040518082815260200191505060405180910390f35b6100dc600480360360208110156100c657600080fd5b810190808035906020019092919050505061021a565b6040518082815260200191505060405180910390f35b6000828241604051602001808273ffffffffffffffffffffffffffffffffffffffff1673ffffffffffffffffffffffffffffffffffffffff1660601b81526014019150506040516020818303038152906040528051906020012060001c4442010101604051602001808281526020019150506040516020818303038152906040528051906020012060001c8161018457fe5b06905092915050565b600041604051602001808273ffffffffffffffffffffffffffffffffffffffff1673ffffffffffffffffffffffffffffffffffffffff1660601b81526014019150506040516020818303038152906040528051906020012060001c44420101604051602001808281526020019150506040516020818303038152906040528051906020012060001c905090565b60008141604051602001808273ffffffffffffffffffffffffffffffffffffffff1673ffffffffffffffffffffffffffffffffffffffff1660601b81526014019150506040516020818303038152906040528051906020012060001c44420101604051602001808281526020019150506040516020818303038152906040528051906020012060001c816102aa57fe5b06905091905056fea265627a7a72315820d164e9a114d099f78540e3496605e0445782979b24c30c0cb3730de3a71df9f564736f6c63430005100032",
  "source": "pragma solidity >=0.4.21 <0.6.0;\r\n// pragma solidity ^0.5.4;\r\n\r\n\r\n/**\r\n * Randomizer to generating psuedo random numbers\r\n */\r\ncontract Randomizer {\r\n    function getRandom(uint gamerange) external view returns (uint)\r\n    {\r\n        return\r\n            uint(\r\n                keccak256(\r\n                    abi.encodePacked(\r\n                        block.timestamp +\r\n                            block.difficulty +\r\n                            uint(keccak256(abi.encodePacked(block.coinbase)))\r\n                    )\r\n                )\r\n            ) % gamerange;\r\n    }\r\n\r\n    function getRandom(uint gamerange, uint seed) external view returns (uint)\r\n    {\r\n        return\r\n            uint(\r\n                keccak256(\r\n                    abi.encodePacked(\r\n                        now +\r\n                            block.difficulty +\r\n                            uint(\r\n                                keccak256(abi.encodePacked(block.coinbase))\r\n                            ) +\r\n                            seed\r\n                    )\r\n                )\r\n            ) % gamerange;\r\n    }\r\n\r\n    function getRandom() external view returns (uint) {\r\n        return\r\n            uint(\r\n                keccak256(\r\n                    abi.encodePacked(\r\n                        block.timestamp +\r\n                            block.difficulty +\r\n                            uint(keccak256(abi.encodePacked(block.coinbase)))\r\n                    )\r\n                )\r\n            );\r\n    }\r\n}\r\n",
  "sourcePath": "F:\\my-current-project\\20210106_Debase\\DecentralizedOracle\\on-chain-oracle\\contracts\\Randomizer.sol",
  "compiler": {
    "name": "solc",
    "version": "0.5.16+commit.9c3226ce.Emscripten.clang"
  },
  "schemaVersion": "3.3.3",
  "updatedAt": "2021-01-20T06:45:36.687Z",
  "devdoc": {
    "methods": {}
  },
  "userdoc": {
    "methods": {},
    "notice": "Randomizer to generating psuedo random numbers"
  }
}