{
  "contractName": "Randomizer",
  "abi": [
    {
      "constant": true,
      "inputs": [
        {
          "internalType": "uint256",
          "name": "gamerange",
          "type": "uint256"
        },
        {
          "internalType": "uint256",
          "name": "seed",
          "type": "uint256"
        }
      ],
      "name": "getRandom",
      "outputs": [
        {
          "internalType": "uint256",
          "name": "",
          "type": "uint256"
        }
      ],
      "payable": false,
      "stateMutability": "view",
      "type": "function"
    },
    {
      "constant": true,
      "inputs": [],
      "name": "getRandom",
      "outputs": [
        {
          "internalType": "uint256",
          "name": "",
          "type": "uint256"
        }
      ],
      "payable": false,
      "stateMutability": "view",
      "type": "function"
    },
    {
      "constant": true,
      "inputs": [
        {
          "internalType": "uint256",
          "name": "gamerange",
          "type": "uint256"
        }
      ],
      "name": "getRandom",
      "outputs": [
        {
          "internalType": "uint256",
          "name": "",
          "type": "uint256"
        }
      ],
      "payable": false,
      "stateMutability": "view",
      "type": "function"
    }
  ],
  "bytecode": "0x6102f1610026600b82828239805160001a60731461001957fe5b30600052607381538281f3fe730000000000000000000000000000000000000000301460806040526004361061004b5760003560e01c8063655b08eb14610050578063aacc5a171461009c578063cd4b6914146100ba575b600080fd5b6100866004803603604081101561006657600080fd5b8101908080359060200190929190803590602001909291905050506100fc565b6040518082815260200191505060405180910390f35b6100a4610197565b6040518082815260200191505060405180910390f35b6100e6600480360360208110156100d057600080fd5b8101908080359060200190929190505050610224565b6040518082815260200191505060405180910390f35b6000828241604051602001808273ffffffffffffffffffffffffffffffffffffffff1673ffffffffffffffffffffffffffffffffffffffff1660601b81526014019150506040516020818303038152906040528051906020012060001c4442010101604051602001808281526020019150506040516020818303038152906040528051906020012060001c8161018e57fe5b06905092915050565b600041604051602001808273ffffffffffffffffffffffffffffffffffffffff1673ffffffffffffffffffffffffffffffffffffffff1660601b81526014019150506040516020818303038152906040528051906020012060001c44420101604051602001808281526020019150506040516020818303038152906040528051906020012060001c905090565b60008141604051602001808273ffffffffffffffffffffffffffffffffffffffff1673ffffffffffffffffffffffffffffffffffffffff1660601b81526014019150506040516020818303038152906040528051906020012060001c44420101604051602001808281526020019150506040516020818303038152906040528051906020012060001c816102b457fe5b06905091905056fea265627a7a723158200812df80132f4310e4ec4e1a89ea6fda7a36fa5948977c0e79cb54d078828b4064736f6c63430005100032",
  "source": "pragma solidity >=0.4.21 <0.6.0;\r\n// pragma solidity ^0.5.4;\r\n\r\n\r\n/**\r\n * Randomizer to generating psuedo random numbers\r\n */\r\nlibrary Randomizer {\r\n    function getRandom(uint256 gamerange) external view returns (uint256)\r\n    {\r\n        return\r\n            uint256(\r\n                keccak256(\r\n                    abi.encodePacked(\r\n                        block.timestamp +\r\n                            block.difficulty +\r\n                            uint256(keccak256(abi.encodePacked(block.coinbase)))\r\n                    )\r\n                )\r\n            ) % gamerange;\r\n    }\r\n\r\n    function getRandom(uint256 gamerange, uint256 seed) external view returns (uint256)\r\n    {\r\n        return\r\n            uint256(\r\n                keccak256(\r\n                    abi.encodePacked(\r\n                        now +\r\n                            block.difficulty +\r\n                            uint256(\r\n                                keccak256(abi.encodePacked(block.coinbase))\r\n                            ) +\r\n                            seed\r\n                    )\r\n                )\r\n            ) % gamerange;\r\n    }\r\n\r\n    function getRandom() external view returns (uint256) {\r\n        return\r\n            uint256(\r\n                keccak256(\r\n                    abi.encodePacked(\r\n                        block.timestamp +\r\n                            block.difficulty +\r\n                            uint256(keccak256(abi.encodePacked(block.coinbase)))\r\n                    )\r\n                )\r\n            );\r\n    }\r\n}\r\n",
  "sourcePath": "F:\\my-current-project\\20210106_Debase\\DecentralizedOracle\\on-chain-oracle\\contracts\\library\\Randomizer.sol",
  "compiler": {
    "name": "solc",
    "version": "0.5.16+commit.9c3226ce.Emscripten.clang"
  },
  "schemaVersion": "3.3.3",
  "updatedAt": "2021-01-21T02:50:49.106Z",
  "devdoc": {
    "methods": {}
  },
  "userdoc": {
    "methods": {},
    "notice": "Randomizer to generating psuedo random numbers"
  }
}