{
  "contractName": "Selection",
  "abi": [
    {
      "constant": true,
      "inputs": [],
      "name": "randomizer",
      "outputs": [
        {
          "name": "",
          "type": "address"
        }
      ],
      "payable": false,
      "stateMutability": "view",
      "type": "function"
    },
    {
      "constant": true,
      "inputs": [
        {
          "name": "n",
          "type": "uint256"
        },
        {
          "name": "m",
          "type": "uint256"
        }
      ],
      "name": "getSelectedOracles",
      "outputs": [
        {
          "name": "",
          "type": "uint256[]"
        }
      ],
      "payable": false,
      "stateMutability": "view",
      "type": "function"
    }
  ],
  "bytecode": "0x608060405234801561001057600080fd5b5061047b806100206000396000f30060806040526004361061004c576000357c0100000000000000000000000000000000000000000000000000000000900463ffffffff168063e832993d14610051578063f10fb584146100dd575b600080fd5b34801561005d57600080fd5b506100866004803603810190808035906020019092919080359060200190929190505050610134565b6040518080602001828103825283818151815260200191508051906020019060200280838360005b838110156100c95780820151818401526020810190506100ae565b505050509050019250505060405180910390f35b3480156100e957600080fd5b506100f26102c0565b604051808273ffffffffffffffffffffffffffffffffffffffff1673ffffffffffffffffffffffffffffffffffffffff16815260200191505060405180910390f35b60608060606000809050600090505b858110156102525760408051908101604052808281526020016000809054906101000a900473ffffffffffffffffffffffffffffffffffffffff1673ffffffffffffffffffffffffffffffffffffffff1663cd4b6914896040518263ffffffff167c010000000000000000000000000000000000000000000000000000000002815260040180828152602001915050602060405180830381600087803b1580156101ec57600080fd5b505af1158015610200573d6000803e3d6000fd5b505050506040513d602081101561021657600080fd5b8101908080519060200190929190505050815250838281518110151561023857fe5b906020019060200201819052508080600101915050610143565b61026283600060018651036102e5565b600090505b848110156102b457828181518110151561027d57fe5b9060200190602002015160000151828281518110151561029957fe5b90602001906020020181815250508080600101915050610267565b81935050505092915050565b6000809054906101000a900473ffffffffffffffffffffffffffffffffffffffff1681565b6000806000849250839150818314156102fd57610447565b85600286860381151561030c57fe5b05860181518110151561031b57fe5b906020019060200201516020015190505b818313151561041e575b80868481518110151561034557fe5b90602001906020020151602001511015610366578280600101935050610336565b5b858281518110151561037557fe5b906020019060200201516020015181101561039857818060019003925050610367565b81831315156104195785828151811015156103af57fe5b9060200190602002015186848151811015156103c757fe5b9060200190602002015187858151811015156103df57fe5b90602001906020020188858151811015156103f657fe5b906020019060200201829052829052505082806001019350508180600190039250505b61032c565b81851215610432576104318686846102e5565b5b83831215610446576104458684866102e5565b5b5b5050505050505600a165627a7a72305820f5b48ec08619dafef998919f1bcd8c06f1a99eee50f2601dc17d30995e30db050029",
  "source": "pragma solidity >=0.4.21 <0.6.0;\r\n\r\nimport \"./Randomizer.sol\";\r\n\r\ncontract Selection {\r\n    Randomizer public randomizer;\r\n\r\n    struct Pair {\r\n        uint id;\r\n        uint value;\r\n    }\r\n\r\n    function quickSort(Pair[] memory arr, int left, int right) internal pure {\r\n        int i = left;\r\n        int j = right;\r\n        if (i == j) return;\r\n        uint pivot = arr[uint(left + (right - left) / 2)].value;\r\n        while (i <= j) {\r\n            while (arr[uint(i)].value < pivot) i++;\r\n            while (pivot < arr[uint(j)].value) j--;\r\n            if (i <= j) {\r\n                (arr[uint(i)], arr[uint(j)]) = (arr[uint(j)], arr[uint(i)]);\r\n                i++;\r\n                j--;\r\n            }\r\n        }\r\n        if (left < j)\r\n            quickSort(arr, left, j);\r\n        if (i < right)\r\n            quickSort(arr, i, right);\r\n    }\r\n\r\n    function getSelectedOracles(uint n, uint m) external view returns (uint[]) {\r\n        Pair[] memory data;\r\n        uint[] memory res;\r\n        uint i = 0;\r\n        for (i = 0 ; i < n ; i ++) {\r\n            data[i] = Pair(i, randomizer.getRandom(n));\r\n        }\r\n        quickSort(data, int(0), int(data.length - 1));\r\n        for (i = 0 ; i < m ; i ++) {\r\n            res[i] = data[i].id;\r\n        }\r\n        return res;\r\n    }\r\n}",
  "sourcePath": "F:\\my-current-project\\20210106_Debase\\DecentralizedOracle\\on-chain-oracle\\contracts\\Selection.sol",
  "compiler": {
    "name": "solc",
    "version": "0.4.24+commit.e67f0147.Emscripten.clang"
  },
  "schemaVersion": "2.0.0",
  "updatedAt": "2021-01-17T07:03:02.805Z"
}