{
  "contractName": "Selection",
  "abi": [
    {
      "constant": true,
      "inputs": [],
      "name": "randomizer",
      "outputs": [
        {
          "internalType": "contract Randomizer",
          "name": "",
          "type": "address"
        }
      ],
      "payable": false,
      "stateMutability": "view",
      "type": "function"
    },
    {
      "constant": true,
      "inputs": [
        {
          "internalType": "uint256",
          "name": "n",
          "type": "uint256"
        },
        {
          "internalType": "uint256",
          "name": "m",
          "type": "uint256"
        }
      ],
      "name": "getSelectedOracles",
      "outputs": [
        {
          "internalType": "uint256[]",
          "name": "",
          "type": "uint256[]"
        }
      ],
      "payable": false,
      "stateMutability": "view",
      "type": "function"
    }
  ],
  "bytecode": "0x608060405234801561001057600080fd5b50610419806100206000396000f3fe608060405234801561001057600080fd5b50600436106100365760003560e01c8063e832993d1461003b578063f10fb584146100c8575b600080fd5b6100716004803603604081101561005157600080fd5b810190808035906020019092919080359060200190929190505050610112565b6040518080602001828103825283818151815260200191508051906020019060200280838360005b838110156100b4578082015181840152602081019050610099565b505050509050019250505060405180910390f35b6100d0610274565b604051808273ffffffffffffffffffffffffffffffffffffffff1673ffffffffffffffffffffffffffffffffffffffff16815260200191505060405180910390f35b60608060606000809050600090505b8581101561020e5760405180604001604052808281526020016000809054906101000a900473ffffffffffffffffffffffffffffffffffffffff1673ffffffffffffffffffffffffffffffffffffffff1663cd4b6914896040518263ffffffff1660e01b81526004018082815260200191505060206040518083038186803b1580156101ac57600080fd5b505afa1580156101c0573d6000803e3d6000fd5b505050506040513d60208110156101d657600080fd5b81019080805190602001909291905050508152508382815181106101f657fe5b60200260200101819052508080600101915050610121565b61021e8360006001865103610299565b600090505b848110156102685782818151811061023757fe5b60200260200101516000015182828151811061024f57fe5b6020026020010181815250508080600101915050610223565b81935050505092915050565b6000809054906101000a900473ffffffffffffffffffffffffffffffffffffffff1681565b60008290506000829050808214156102b25750506103df565b6000856002868603816102c157fe5b058601815181106102ce57fe5b60200260200101516020015190505b8183136103b3575b808684815181106102f257fe5b60200260200101516020015110156103115782806001019350506102e5565b5b85828151811061031e57fe5b60200260200101516020015181101561033f57818060019003925050610312565b8183136103ae5785828151811061035257fe5b602002602001015186848151811061036657fe5b602002602001015187858151811061037a57fe5b6020026020010188858151811061038d57fe5b60200260200101829052829052505082806001019350508180600190039250505b6102dd565b818512156103c7576103c6868684610299565b5b838312156103db576103da868486610299565b5b5050505b50505056fea265627a7a723158201df9e9347de05c978d994d9fff2c787c94c1d4c7ac0517f390a3a1b49d83e30e64736f6c63430005100032",
  "source": "pragma solidity >=0.4.21 <0.6.0;\r\n\r\nimport \"./Randomizer.sol\";\r\n\r\ncontract Selection {\r\n    Randomizer public randomizer;\r\n\r\n    struct Pair {\r\n        uint id;\r\n        uint value;\r\n    }\r\n\r\n    function quickSort(Pair[] memory arr, int left, int right) internal pure {\r\n        int i = left;\r\n        int j = right;\r\n        if (i == j) return;\r\n        uint pivot = arr[uint(left + (right - left) / 2)].value;\r\n        while (i <= j) {\r\n            while (arr[uint(i)].value < pivot) i++;\r\n            while (pivot < arr[uint(j)].value) j--;\r\n            if (i <= j) {\r\n                (arr[uint(i)], arr[uint(j)]) = (arr[uint(j)], arr[uint(i)]);\r\n                i++;\r\n                j--;\r\n            }\r\n        }\r\n        if (left < j)\r\n            quickSort(arr, left, j);\r\n        if (i < right)\r\n            quickSort(arr, i, right);\r\n    }\r\n\r\n    function getSelectedOracles(uint n, uint m) external view returns (uint[] memory) {\r\n        Pair[] memory data;\r\n        uint[] memory res;\r\n        uint i = 0;\r\n        for (i = 0 ; i < n ; i ++) {\r\n            data[i] = Pair(i, randomizer.getRandom(n));\r\n        }\r\n        quickSort(data, int(0), int(data.length - 1));\r\n        for (i = 0 ; i < m ; i ++) {\r\n            res[i] = data[i].id;\r\n        }\r\n        return res;\r\n    }\r\n}",
  "sourcePath": "F:\\my-current-project\\20210106_Debase\\DecentralizedOracle\\on-chain-oracle\\contracts\\Selection.sol",
  "compiler": {
    "name": "solc",
    "version": "0.5.16+commit.9c3226ce.Emscripten.clang"
  },
  "schemaVersion": "3.3.3",
  "updatedAt": "2021-01-20T06:45:36.702Z",
  "devdoc": {
    "methods": {}
  },
  "userdoc": {
    "methods": {}
  }
}