{
  "contractName": "Selection",
  "abi": [
    {
      "constant": true,
      "inputs": [
        {
          "internalType": "uint256",
          "name": "n",
          "type": "uint256"
        },
        {
          "internalType": "uint256",
          "name": "m",
          "type": "uint256"
        }
      ],
      "name": "getSelectedOracles",
      "outputs": [
        {
          "internalType": "uint256[]",
          "name": "",
          "type": "uint256[]"
        }
      ],
      "payable": false,
      "stateMutability": "view",
      "type": "function"
    }
  ],
  "bytecode": "0x610386610026600b82828239805160001a60731461001957fe5b30600052607381538281f3fe73000000000000000000000000000000000000000030146080604052600436106100355760003560e01c8063e832993d1461003a575b600080fd5b6100706004803603604081101561005057600080fd5b8101908080359060200190929190803590602001909291905050506100c7565b6040518080602001828103825283818151815260200191508051906020019060200280838360005b838110156100b3578082015181840152602081019050610098565b505050509050019250505060405180910390f35b60608060606000809050600090505b858110156101a057604051806040016040528082815260200173__Randomizer____________________________63cd4b6914896040518263ffffffff1660e01b81526004018082815260200191505060206040518083038186803b15801561013e57600080fd5b505af4158015610152573d6000803e3d6000fd5b505050506040513d602081101561016857600080fd5b810190808051906020019092919050505081525083828151811061018857fe5b602002602001018190525080806001019150506100d6565b6101b08360006001865103610206565b600090505b848110156101fa578281815181106101c957fe5b6020026020010151600001518282815181106101e157fe5b60200260200101818152505080806001019150506101b5565b81935050505092915050565b600082905060008290508082141561021f57505061034c565b60008560028686038161022e57fe5b0586018151811061023b57fe5b60200260200101516020015190505b818313610320575b8086848151811061025f57fe5b602002602001015160200151101561027e578280600101935050610252565b5b85828151811061028b57fe5b6020026020010151602001518110156102ac5781806001900392505061027f565b81831361031b578582815181106102bf57fe5b60200260200101518684815181106102d357fe5b60200260200101518785815181106102e757fe5b602002602001018885815181106102fa57fe5b60200260200101829052829052505082806001019350508180600190039250505b61024a565b8185121561033457610333868684610206565b5b8383121561034857610347868486610206565b5b5050505b50505056fea265627a7a72315820007c8ce2bfb81864de2b57b50efff1e7231cab11cf7c3f8ab7786d93f9f2163764736f6c63430005100032",
  "source": "pragma solidity >=0.4.21 <0.6.0;\r\n\r\nimport \"./Randomizer.sol\";\r\n\r\nlibrary Selection {\r\n\r\n    struct Pair {\r\n        uint256 id;\r\n        uint256 value;\r\n    }\r\n\r\n    function quickSort(Pair[] memory arr, int left, int right) internal pure {\r\n        int i = left;\r\n        int j = right;\r\n        if (i == j) return;\r\n        uint256 pivot = arr[uint256(left + (right - left) / 2)].value;\r\n        while (i <= j) {\r\n            while (arr[uint256(i)].value < pivot) i++;\r\n            while (pivot < arr[uint256(j)].value) j--;\r\n            if (i <= j) {\r\n                (arr[uint256(i)], arr[uint256(j)]) = (arr[uint256(j)], arr[uint256(i)]);\r\n                i++;\r\n                j--;\r\n            }\r\n        }\r\n        if (left < j)\r\n            quickSort(arr, left, j);\r\n        if (i < right)\r\n            quickSort(arr, i, right);\r\n    }\r\n\r\n    function getSelectedOracles(uint256 n, uint256 m) external view returns (uint256[] memory) {\r\n        Pair[] memory data;\r\n        uint256[] memory res;\r\n        uint256 i = 0;\r\n        \r\n        for (i = 0 ; i < n ; i ++) {\r\n            data[i] = Pair(i, Randomizer.getRandom(n));\r\n        }\r\n\r\n        quickSort(data, int(0), int(data.length - 1));\r\n        \r\n        for (i = 0 ; i < m ; i ++) {\r\n            res[i] = data[i].id;\r\n        }\r\n\r\n        return res;\r\n    }\r\n}",
  "sourcePath": "F:\\my-current-project\\20210106_Debase\\DecentralizedOracle\\on-chain-oracle\\contracts\\library\\Selection.sol",
  "compiler": {
    "name": "solc",
    "version": "0.5.16+commit.9c3226ce.Emscripten.clang"
  },
  "schemaVersion": "3.3.3",
  "updatedAt": "2021-01-22T02:23:58.786Z",
  "devdoc": {
    "methods": {}
  },
  "userdoc": {
    "methods": {}
  }
}